:100000000C9430000C944D000C944D000C944D0059
:100010000C944D000C944D000C944D000C944D002C
:100020000C944D000C944D000C944D000C944D001C
:100030000C944D000C944D000C944D000C944D000C
:100040000C944D000C944D000C944D000C944D00FC
:100050000C944D006364696E6F70737578585B0023
:1000600011241FBECFE5D8E0DEBFCDBF13E0A0E670
:10007000B0E0EAE9FFE102C005900D92A63FB107AA
:10008000D9F726E0A6EFB3E001C01D92A039B20770
:10009000E1F70E946C030C94CB0F0C94000086E4F3
:1000A000E1E0F4E0DF011D928A95E9F741E050E0DC
:1000B00060E070E086EF93E00E940A0F46E450E0B3
:1000C00061E070E081E094E00E940A0F089541E051
:1000D00050E060E070E086EF93E00E941A0F46E483
:1000E00050E061E070E081E094E00E941A0F089512
:1000F000CF92DF92EF92FF920F931F93CF93DF93F4
:10010000D82E8B01C0E0D0E02FC08DE18C9FF00194
:100110008D9FF00D1124E95BFB4F80818D1123C071
:100120002DE12C9FC0012D9F900D112444E050E043
:10013000B801815A9B4F0E94F008892B09F08BC0AF
:100140008DE18C9FF0018D9FF00D1124E95BFB4F39
:10015000848D90E0268937898217930708F087C03D
:10016000C0E0D0E07AC021968091000490E0C817EA
:10017000D9075CF2C0E0D0E070C0FE01EE0FFF1FB7
:10018000EE0FFF1FEE0FFF1FEC1BFD0BEF5FFB4F92
:100190008081D8125EC0CE01880F991F880F991FE9
:1001A000880F991F8C1B9D0B44E050E0B8018E5FB7
:1001B0009B4F0E94F008892B09F04BC0FE01EE0F07
:1001C000FF1FEE0FFF1FEE0FFF1FEC1BFD0BEF5F7E
:1001D000FB4F85819681009781F1FE01EE0FFF1F95
:1001E000EE0FFF1FEE0FFF1FEC1BFD0BEF5FFB4F32
:1001F0000197968385830E94670081E039C0CE0114
:100200000196DE01AA0FBB1FAA0FBB1FAA0FBB1FBF
:10021000AC1BBD0BAF5FBB4FFC01EE0FFF1FEE0F22
:10022000FF1FEE0FFF1FE81BF90BEF5FFB4F27E0EF
:1002300001900D922A95E1F7EC01C7010197C817CB
:10024000D907ECF2CA94C092F6030E94670080E0DE
:100250000FC0219602C0C0E0D0E0C090F603EC2CA5
:10026000F12CCE15DF050CF488CF80E001C081E0D1
:10027000DF91CF911F910F91FF90EF90DF90CF9082
:1002800008950F931F93CF93DF93CDB7DEB72797D2
:100290000FB6F894DEBF0FBECDBF9091F6039A3033
:1002A00058F58983FB0100811181228133810A8302
:1002B0001B832C833D835F834E8381E0890F809372
:1002C000F603892F90E0DC01AA0FBB1FAA0FBB1F0A
:1002D000AA0FBB1FA81BB90BAF5FBB4F87E0FE0186
:1002E000319601900D928A95E1F70E94670084E6AD
:1002F00090E00E94590804C08AE790E00E945908E3
:1003000027960FB6F894DEBF0FBECDBFDF91CF9119
:100310001F910F910895EF92FF920F931F93CF9328
:10032000DF93CDB7DEB727970FB6F894DEBF0FBEC9
:10033000CDBF8C0146E050E063EB70E00E940609FF
:10034000892B91F5CE0104969F938F9301979F93EC
:100350008F9301979F938F939E012F5F3F4F79015A
:100360003F932F9303969F938F938AEB90E09F93F5
:100370008F930A5F1F4F1F930F930E944509B70188
:100380008D810E9478000FB6F894DEBF0FBECDBFFE
:10039000882329F080ED90E00E9459083CC080EE4F
:1003A00090E00E94590837C045E050E06FEE70E0E1
:1003B000C8010E940609892B51F5CE0105969F932D
:1003C0008F9301979F938F9301979F938F9301979B
:1003D0009F938F9301977C019F938F9306969F9392
:1003E0008F9385EF90E09F938F930B5F1F4F1F9329
:1003F0000F930E9445094D815E81B7018F810E9454
:1004000041010FB6F894DEBF0FBECDBF04C08FE030
:1004100091E00E94590827960FB6F894DEBF0FBEF0
:10042000CDBFDF91CF911F910F91FF90EF90089575
:1004300081B3837E81BB82B38C6182BB0E944308FF
:1004400087E291E00E9459080E9411060E944F0025
:100450000E94A5037894089520B330E0082E02C0CE
:10046000359527950A94E2F720FD15C02FE33DE06E
:1004700043E0215030404040E1F700C0000020B38D
:1004800030E0A90102C0559547958A95E2F740FDF5
:1004900004C081E0089580E0089580E0089582E03E
:1004A0000E942C02882371F08091FA039091FB0343
:1004B00001969093FB038093FA03E7EFF3E08081CA
:1004C0008F5F808383E00E942C02882371F08091EB
:1004D000FA039091FB0301969093FB038093FA0338
:1004E000E7EFF3E080818F5F808384E00E942C023D
:1004F0008823C1F08091FA039091FB03892B91F03E
:100500008091FA039091FB0301979093FB038093F2
:10051000FA038091F703882329F0E7EFF3E0808165
:100520008150808308950F931F93CF93DF93CDB7AE
:10053000DEB7C456D1090FB6F894DEBF0FBECDBFEB
:100540008C0166E371E00E94FD08892B29F5E7EF35
:10055000F3E04281318120818091FA039091FB0385
:100560001F924F931F923F931F922F939F938F93AE
:100570008CE391E09F938F938E010F5F1F4F1F932A
:100580000F930E942309C8010E9459080FB6F894DE
:10059000DEBF0FBECDBF94C045E050E06EEC73E00F
:1005A000C8010E940609892B09F05CC0F801858109
:1005B00090E0C097278130E02053310983309105C6
:1005C00008F042C033230CF43FC023303105E4F57A
:1005D00082179307C9F1FC01E950FC4F4081442385
:1005E00001F1FC01E950FC4F408141504083F90189
:1005F000E950FC4F40814F5F40833F932F939F937F
:100600008F9384E891E09F938F93CE0101969F93FF
:100610008F930E9423090FB6F894DEBF0FBECDBFA3
:100620001CC09F938F938FEA91E09F938F93CE018D
:1006300001969F938F930E9423090F900F900F9024
:100640000F900F900F9009C08FE1EEECF1E0DE010A
:10065000119601900D928A95E1F7CE0101960E94C4
:1006600059082EC047E050E06DEE71E0C8010E94CD
:100670000609892B29F4C80107960E94AF0720C0FC
:1006800047E050E065EF71E0C8010E940609892B40
:1006900029F4C80107960E948B0112C047E050E080
:1006A0006DEF71E0C8010E940609892B29F4C80189
:1006B00007960E942A0504C085E092E00E9459082E
:1006C000CC59DF4F0FB6F894DEBF0FBECDBFDF9120
:1006D000CF911F910F910895CF93DF93CDB7DEB7E0
:1006E000E2970FB6F894DEBF0FBECDBF0E9418028E
:1006F00000E00E944F025F9BFCCF0E945508182F1C
:100700000E944B081A3011F01D3069F4E1E0F0E06E
:10071000EC0FFD1FE00FF11D1082CE0101960E942B
:10072000930200E0E6CFE1E0F0E0EC0FFD1FE00F08
:10073000F11D10830F5FDDCF45E050E060E070E019
:100740008BE896E00E941A0F089545E050E060E0C3
:1007500070E08BE896E00E940A0F80918B069091E2
:100760008C060196A1F488EE93E090938C0680931A
:100770008B0680E090E006C0FC01E557F94F21E0D0
:100780002283019683309105BCF30E949C0344E0D0
:1007900050E065E070E08CEF93E00E940A0F08954E
:1007A0000F931F93CF93DF93CDB7DEB7E2970FB6CA
:1007B000F894DEBF0FBECDBF8091FF038F93809171
:1007C000FE038F938091FD038F938091FC038F93A1
:1007D00087E192E09F938F938E010F5F1F4F1F93CE
:1007E0000F930E942309C8010E9459080FB6F8947C
:1007F000DEBF0FBECDBFE2960FB6F894DEBF0FBED0
:10080000CDBFDF91CF911F910F9108950F931F934B
:10081000CF93DF93CDB7DEB7E2970FB6F894DEBF84
:100820000FBECDBF8C0190938C0680938B060E94E7
:100830009C0380E090E04BC02DE1289FF001299FB0
:10084000F00D1124E95BFB4F258921110BC02DE12F
:10085000289FF001299FF00D1124E95BFB4F178BB6
:10086000068B34C02130A1F49801220F331F200FD2
:10087000311F36952795369527954DE1489FF00114
:10088000499FF00D1124E95BFB4F378B268B1EC06F
:100890002230E1F49801220F331F200F311F3695CB
:1008A000279536952795A901440F551F240F351F0D
:1008B00036952795369527954DE1489FF001499F3C
:1008C000F00D1124E95BFB4F378B268B01962091AD
:1008D000000430E0821793070CF4AECF0E9432067A
:1008E0001F930F938EE292E09F938F938E010F5F81
:1008F0001F4F1F930F930E942309C8010E9459089C
:100900000F900F900F900F900F900F90E2960FB6F0
:10091000F894DEBF0FBECDBFDF91CF911F910F9135
:1009200008950F931F93CF93DF93CDB7DEB7E29770
:100930000FB6F894DEBF0FBECDBF182F062F833041
:1009400030F5E82FF0E0E557F94F62830E949C03F1
:10095000002319F083E492E002C086E492E09F93C2
:100960008F931F921F938AE492E09F938F938E013F
:100970000F5F1F4F1F930F930E942309C8010E940E
:1009800059080FB6F894DEBF0FBECDBF04C08BE68A
:1009900092E00E945908E2960FB6F894DEBF0FBEAF
:1009A000CDBFDF91CF911F910F9108950F931F93AA
:1009B000CF93DF93CDB7DEB7E2970FB6F894DEBFE3
:1009C0000FBECDBF182F20E030E02FC08DE1829FF9
:1009D000F001839FF00D1124E95BFB4F80818113AF
:1009E00022C08DE1829FF001839FF00D1124E95B0D
:1009F000FB4F148E0E9432061F921F9388E892E0EC
:100A00009F938F938E010F5F1F4F1F930F930E9431
:100A10002309C8010E9459080F900F900F900F9062
:100A20000F900F900CC02F5F3F4F8091000490E01B
:100A3000281739075CF284EA92E00E945908E2968E
:100A40000FB6F894DEBF0FBECDBFDF91CF911F91DF
:100A50000F9108950F931F93CF93DF9300D01F92B0
:100A6000CDB7DEB78C0145E050E06DEB72E00E943F
:100A70000609892BE9F4CE0101969F938F938BE0B1
:100A800091E09F938F930B5F1F4F1F930F930E94D3
:100A9000450989819A810E94060483E391E00E94BE
:100AA00059080F900F900F900F900F900F905FC00C
:100AB0004AE050E063EC72E0C8010E940609892B0D
:100AC000F9F4CE0101969F938F9302969F938F9393
:100AD0008EEC92E09F938F93065F1F4F1F930F93AF
:100AE0000E94450969818B810E94910483E391E012
:100AF0000E9459080FB6F894DEBF0FBECDBF37C0B5
:100B000048E050E068ED72E0C8010E940609892BB8
:100B1000E1F4CE0101969F938F9387EC93E09F932E
:100B20008F93085F1F4F1F930F930E944509898180
:100B30000E94D60483E391E00E9459080F900F9021
:100B40000F900F900F900F9012C061EE72E0C801ED
:100B50000E94FD08892B39F40E94D00383E391E0C1
:100B60000E94590804C08AEE92E00E9459080F9032
:100B70000F900F90DF91CF911F910F9108950F93D8
:100B80001F93CF93DF93CDB7DEB7E2970FB6F894FC
:100B9000DEBF0FBECDBF4091FC035091FD036091BD
:100BA000FE037091FF03480F591F611D711D409393
:100BB000FC035093FD036093FE037093FF0344E036
:100BC00050E065E070E08CEF93E00E941A0F809196
:100BD000FF038F938091FE038F938091FD038F938A
:100BE0008091FC038F9387E093E09F938F938E0116
:100BF0000F5F1F4F1F930F930E942309C8010E948C
:100C000059080FB6F894DEBF0FBECDBFE2960FB6FF
:100C1000F894DEBF0FBECDBFDF91CF911F910F9132
:100C2000089541E050E060E070E080E094E00E94D0
:100C30000A0F409100048FEF840F843158F48DE146
:100C4000489FA001112461E070E087E494E00E94D5
:100C50000A0F08951092000460E080E090E00E9486
:100C6000240F08956091000480E090E00E94240F1A
:100C7000409100048DE1489FA001112461E070E0E3
:100C800087E494E00E941A0F08950F931F93CF9367
:100C9000DF93CDB7DEB7CF54D1090FB6F894DEBFDE
:100CA0000FBECDBF9C01162F90910004943108F027
:100CB00058C09F5F9BAB43E150E0B901CE01C496A1
:100CC0000E94140928961FAE289729961FAF2997CE
:100CD0002B961FAE1EAE2B9760961FAE609700E05E
:100CE00010E00FC00E94E0086AE070E00E946C080B
:100CF000EBE4F0E0EC0FFD1FE00FF11F80830F5FCE
:100D00001F4F0430110574F3A091000481E08A0F95
:100D1000809300048DE1A89FD0011124A95BBB4FF3
:100D20008DE1FE01F39601900D928A95E1F70E9404
:100D300032068BA91F928F9385E293E09F938F9346
:100D40008E010F5F1F4F1F930F930E942309C8014D
:100D50000E9459080F900F900F900F900F900F90D6
:100D600004C08BE393E00E945908C15BDF4F0FB6CC
:100D7000F894DEBF0FBECDBFDF91CF911F910F91D1
:100D8000089520E030E034C09DE1929FF001939FF0
:100D9000F00D1124E95BFB4F9081981327C017C019
:100DA000C90101966DE1629FD001639FB00D1124CE
:100DB000A95BBB4F689FF001699FF00D1124E95BAF
:100DC000FB4F2DE101900D922A95E1F79C01CA019C
:100DD00001972817390724F37150709300040E947B
:100DE000320685E693E00E94590808952F5F3F4F31
:100DF00070910004472F50E0241735072CF284EA45
:100E000092E00E9459080895EF92FF920F931F936A
:100E1000CF93DF93CDB7DEB7E2970FB6F894DEBF7E
:100E20000FBECDBFF62EE72E40E050E030C09DE172
:100E3000949FF001959FF00D1124E95BFB4F908189
:100E4000981323C08F01848D8F0D848F0E943206EA
:100E50008F2D9E2D0E94BF05F801848D1F928F93C8
:100E600085E793E09F938F938E010F5F1F4F1F9332
:100E70000F930E942309C8010E9459080F900F90F8
:100E80000F900F900F900F900CC04F5F5F4F20910D
:100E9000000430E04217530754F284EA92E00E94C3
:100EA0005908E2960FB6F894DEBF0FBECDBFDF91B2
:100EB000CF911F910F91FF90EF900895EF92FF92C5
:100EC0000F931F93CF93DF93CDB7DEB7C456D109ED
:100ED0000FB6F894DEBF0FBECDBF00E010E02BC010
:100EE0002DE1209FC001219F900D1124FC01E95BA1
:100EF000FB4F448D3589885B9B4F20811F924F9318
:100F00001F923F939F938F931F922F9382E993E0B9
:100F10009F938F93CE0101967C019F938F930E94A4
:100F20002309C7010E9459080F5F1F4F0FB6F8949D
:100F3000DEBF0FBECDBF8091000490E008171907F7
:100F40007CF2CC59DF4F0FB6F894DEBF0FBECDBF99
:100F5000DF91CF911F910F91FF90EF900895EF9245
:100F6000FF920F931F93CF93DF93CDB7DEB76597B3
:100F70000FB6F894DEBF0FBECDBF8C0144E050E049
:100F80006FEB73E00E940609892BE1F4CE014596D0
:100F90009F938F9344977C019F938F9384EC93E06E
:100FA0009F938F930C5F1F4F1F930F930E944509D0
:100FB0006D89C7010E9445060FB6F894DEBF0FBECB
:100FC000CDBF54C047E050E06CEC73E0C8010E9414
:100FD0000609892BC1F4CE0101969F938F9387EC6C
:100FE00093E09F938F93095F1F4F1F930F930E946E
:100FF000450989810E94C1060F900F900F900F90B4
:101000000F900F9033C044E050E064ED73E0C801EE
:101010000E940609892BE1F4CE0101969F938F93DC
:1010200044969F938F9386E091E09F938F930C5FFC
:101030001F4F1F930F930E94450969817A818D8903
:101040000E9404070FB6F894DEBF0FBECDBF0EC0DE
:1010500069ED73E0C8010E94FD08892B19F40E9414
:101060005E0704C08EED93E00E94590865960FB6A6
:10107000F894DEBF0FBECDBFDF91CF911F910F91CE
:10108000FF90EF90089510BC83E389B988E18AB995
:1010900086E080BD08955D9BFECF8CB989EF90E01E
:1010A0000197F1F700C0000008955F9BFECF8CB15F
:1010B0000895CF93DF93EC0109C00E944B0889EF9C
:1010C00090E00197F1F700C000002196888181111E
:1010D000F4CFDF91CF91089597FB072E16F400947B
:1010E00007D077FD09D00E94800807FC05D03EF4A8
:1010F000909581959F4F0895709561957F4F0895C4
:10110000AA1BBB1B51E107C0AA1FBB1FA617B7072D
:1011100010F0A61BB70B881F991F5A95A9F7809549
:101120009095BC01CD0108958F929F92AF92BF928E
:10113000CF92DF92EF92FF92CF93DF93EC01688121
:1011400079818A819B81611571058105910521F461
:1011500064E279ED8BE597E02DE133EF41E050E07B
:101160000E94310F49015A019B01AC01A7EAB1E489
:101170000E94500F6B017C01ACEEB4EFA50194010D
:101180000E945E0FDC01CB018C0D9D1DAE1DBF1DAD
:10119000B7FF03C00197A109B04888839983AA8348
:1011A000BB839F77DF91CF91FF90EF90DF90CF903F
:1011B000BF90AF909F908F9008950E9494080895DB
:1011C00080E690E00E9494080895A0E0B0E080934B
:1011D000600090936100A0936200B0936300089553
:1011E000FB01DC0104C08D910190801921F4415074
:1011F0005040C8F7881B990B0895FB01DC018D91C5
:10120000019080190110D9F3990B0895FB01DC01BD
:101210004150504030F08D910190801919F4002018
:10122000B9F7881B990B0895FB01DC014150504030
:1012300048F001900D920020C9F701C01D92415065
:101240005040E0F70895AEE0B0E0E9E2F9E00C9438
:10125000710F0D891E8986E08C831A8309838FEFB5
:101260009FE79E838D83AE01475E5F4F6F89788DC8
:10127000CE0101960E945E09EF81F885E00FF11F13
:1012800010822E96E4E00C948D0FAEE0B0E0EBE41B
:10129000F9E00C94730F85E08C838B899C899A8389
:1012A0008983AE01495E5F4F6D897E89CE010196CB
:1012B0000E94DB0C2E96E2E00C948F0FABE0B0E0C6
:1012C000E4E6F9E00C94630F6C017B018A01FC01F8
:1012D00017821682838181FFCCC1CE0101963C0129
:1012E000F6019381F70193FD859193FF81917F0131
:1012F000882309F4BAC1853239F493FD859193FFAF
:1013000081917F01853229F4B60190E00E94540E4C
:10131000E7CF912C212C312CFFE1F315D8F08B3243
:1013200079F038F4803279F08332A1F4232D2061F2
:101330001DC08D3261F0803369F4232D216016C009
:10134000832D8260382EE32DE4603E2E2AC0F32DDB
:10135000F8601DC037FC2DC020ED280F2A3040F06A
:101360008E32B9F436FC81C1232D2064322E19C08F
:1013700036FE06C08AE0989E200D1124922E11C0E0
:10138000EAE02E9E200D1124222EF32DF0623F2E36
:1013900008C08C3621F4832D8068382E02C0883630
:1013A00041F4F70193FD859193FF81917F018111B4
:1013B000B3CF982F9F7D9554933028F40C5F1F4F27
:1013C0009FE399830DC0833631F0833771F0833505
:1013D00009F059C021C0F801808189830E5F1F4F39
:1013E00088248394912C530113C02801F2E04F0EFE
:1013F000511CF801A080B18036FE03C0692D70E059
:1014000002C06FEF7FEFC5010E940B0E4C018201FD
:10141000F32DFF773F2E16C0280122E0420E511C0B
:10142000F801A080B18036FE03C0692D70E002C0D3
:101430006FEF7FEFC5010E94000E4C01F32DF068A5
:101440003F2E820133FC1BC0822D90E08816990646
:10145000B0F4B60180E290E00E94540E2A94F4CFDA
:10146000F50137FC859137FE81915F01B60190E06F
:101470000E94540E21102A9421E0821A91088114AE
:10148000910471F7E8C0843611F0893641F5F8010E
:1014900037FE07C060817181828193810C5F1F4F8D
:1014A00008C060817181072E000C880B990B0E5FBC
:1014B0001F4FF32DFF763F2E97FF09C09095809523
:1014C000709561957F4F8F4F9F4FF0683F2E2AE0B8
:1014D00030E0A3010E94A90E882E861845C08537EA
:1014E00031F4232D2F7EB22E2AE030E025C0932D3B
:1014F000997FB92E8F36C1F018F4883579F0B5C0D0
:10150000803719F0883721F0B0C0E92FE061BE2E96
:10151000B4FE0DC0FB2DF460BF2E09C034FE0AC01E
:10152000292F2660B22E06C028E030E005C020E159
:1015300030E002C020E132E0F801B7FE07C0608170
:101540007181828193810C5F1F4F06C06081718120
:1015500080E090E00E5F1F4FA3010E94A90E882E2D
:101560008618FB2DFF773F2E36FE0DC0232D2E7FD4
:10157000A22E891458F434FE0BC032FC09C0832D0E
:101580008E7EA82E05C0B82CA32C03C0B82C01C099
:10159000B92CA4FE0FC0FE01E80DF11D808180333F
:1015A00021F49A2D997EA92E09C0A2FE06C0B394FB
:1015B000B39404C08A2D867809F0B394A3FC11C0BB
:1015C000A0FE06C0B21488F4280C922C9B180EC002
:1015D000B21460F4B60180E290E00E94540EB3941D
:1015E000F7CFB21418F42B1802C0982C212CA4FEAB
:1015F00010C0B60180E390E00E94540EA2FE17C016
:10160000A1FC03C088E790E002C088E590E0B60145
:101610000CC08A2D867859F0A1FE02C08BE201C071
:1016200080E2A7FC8DE2B60190E00E94540E89147E
:1016300038F4B60180E390E00E94540E9A94F7CFFC
:101640008A94F301E80DF11D8081B60190E00E94BB
:10165000540E8110F5CF222009F442CEB60180E26B
:1016600090E00E94540E2A94F6CFF601868197816D
:1016700002C08FEF9FEF2B96E2E10C947F0F20FDCD
:1016800009C0FC0123FD05C022FF02C073836283F1
:1016900051834083089544FD17C046FD17C0AB0138
:1016A000BC01DA01FB01AA0FBB1FEE1FFF1F109444
:1016B000D1F74A0F5B1F6E1F7F1FCB01BA01660F68
:1016C000771F881F991F09C033E001C034E0660FFF
:1016D000771F881F991F3150D1F7620F711D811D2F
:1016E000911D08950F931F93CF93DF938C01C80131
:1016F0000E94160EEC0197FD08C00E94EC0D892B8C
:10170000B1F7B801CE010E94900ECE01DF91CF91CA
:101710001F910F9108958F929F92AF92BF92EF9277
:10172000FF920F931F93CF93DF938C01D62F7A01F3
:10173000B22E0E94160E9C0133272B32310531F058
:101740002D32310561F48B2D8068B82ED15011F403
:1017500080E068C0C8010E94160E97FDF9CFCB2D1E
:10176000CD7F2B2D207309F58033F9F4AA24AA9498
:10177000AD0E09F443C0C8010E94160E97FD3EC08D
:101780009C012F7D33272835310549F4C264D2509E
:10179000A9F1C8010E94160E97FF07C02FC0B6FE20
:1017A00002C0C26001C0C261DA2D812C912C5401AB
:1017B00020ED280F283080F0C4FF04C0B8010E943B
:1017C000900E19C02A3040F0C6FFF8CF2F7D3FEEB3
:1017D000320F363098F727504C2FC501B4010E94C4
:1017E0004B0B4B015C01C260D15059F0C8010E9403
:1017F000160E97FFDDCFC1FD04C0AACF812C912C1E
:101800005401C7FF08C0B094A09490948094811CA8
:10181000911CA11CB11C2C2FB501A401C7010E9471
:101820003F0B81E0DF91CF911F910F91FF90EF90DF
:10183000BF90AF909F908F900895A0E2B0E0E3E258
:10184000FCE00C94660F5C01962E7A01F9018E0182
:101850000F5F1F4F680180E2D8011D928A95E9F75A
:10186000D50113968C9080E090E0612C712C30E0D3
:1018700061E070E083FC259183FE21918F01522E5F
:10188000211103C080E090E092C02E3511F4009742
:1018900051F1432F50E0481759073CF42D3559F1C9
:1018A0002D3219F4772009F103C0772009F46AC0BA
:1018B000452D469546954695D601A40FB11D452D5B
:1018C00047708B0102C0000F111F4A95E2F7A80173
:1018D0005C91452B4C93651459F0561410F45394B5
:1018E000E7CF5A94E5CF31E004C07724739401C068
:1018F000712C0196BFCF772019F08E8180628E8384
:10190000311103C08824839417C0F6019E012F5D16
:101910003F4F8081809581932E173F07D1F7F2CFFB
:10192000E114F10429F0D7018C93F70131967F017E
:101930009A94812C9920F9F0C5010E94160E97FD0A
:1019400018C0FC01FF2723E0F595E7952A95E1F7FC
:10195000EC0DFD1D208130E0AC014770552702C021
:10196000359527954A95E2F720FDDACFB5010E941B
:10197000900E811087CFE114F10411F0D7011C9271
:10198000C80115C0422F469546954695D601A40F2D
:10199000B11D422F47708B0102C0000F111F4A95E5
:1019A000E2F7A8015C91452B4C93622EA2CFA09642
:1019B000EFE00C94820FA0E0B0E0E1EEFCE00C94CC
:1019C000660F6C01EB015A01FC0117821682512C43
:1019D000F601E380FE01E3FC8591E3FE8191182F7F
:1019E000EF01882309F4EEC090E00E94EC0D892BF2
:1019F00021F0C6010E94720BEBCF153241F4FE01BB
:101A0000E3FC1591E3FE1191EF01153281F4C6015B
:101A10000E94160E97FDD4C0412F50E09C01332741
:101A200024173507A9F2B6010E94900ECBC01A32D6
:101A300039F4E3FC1591E3FE1191EF0101E001C0DF
:101A400000E0F12C20ED210F2A3080F402606F2D90
:101A500070E080E090E040E20E944B0BF62EFE0129
:101A6000E3FC1591E3FE1191EF01ECCF01FF03C000
:101A7000F11003C0A7C0FF24FA94183619F01C36E1
:101A800051F010C0FE01E3FC1591E3FE1191EF014E
:101A9000183641F408600460FE01E3FC1591E3FE92
:101AA0001191EF01112309F48DC0612F70E084E5DD
:101AB00090E00E94F50D892B09F484C000FD07C059
:101AC000F50180809180C50102965C0102C0812CE5
:101AD000912C1E3651F4F6014681578160E070E08A
:101AE000202FC4010E943F0B73CF1336A9F401FDD0
:101AF00002C0FF24F394C6010E94160E97FD60C039
:101B00008114910429F0F4018083C40101964C01F1
:101B1000FA94F110F0CF50C01B3559F49E01A40186
:101B20006F2DC6010E941D0CEC01892B09F044C0E9
:101B30003EC0C6010E94720B97FD42C01F3661F184
:101B400028F4143639F1193651F128C0133771F0E1
:101B5000153701F123C08114910429F0F40160824A
:101B6000C40101964C01FA94FF2071F0C6010E9455
:101B7000160E3C0197FD08C00E94EC0D892B59F30D
:101B8000B601C3010E94900E81149104A9F0F401E2
:101B9000108212C0006203C0006101C00064202FE7
:101BA000A4016F2DC6010E948B0B811105C0F601A7
:101BB0008381807329F406C000FD0ACF539408CFB7
:101BC000552019F0852D90E002C08FEF9FEFCDB723
:101BD000DEB7EFE00C94820F91110C94070F803266
:101BE00019F089508550C8F70895FC010590061634
:101BF00021F00020D9F7C00108953197CF01089551
:101C0000FC010590615070400110D8F780959095C7
:101C10008E0F9F1F0895FC016150704001900110CC
:101C2000D8F7809590958E0F9F1F0895CF93DF93DF
:101C3000EC012B8120FF33C026FF0AC02F7B2B83B2
:101C40008E819F8101969F838E838A8190E029C037
:101C500022FF0FC0E881F9818081082E000C990BCA
:101C6000009719F420622B831AC03196F983E88318
:101C70000EC0EA85FB85099597FF09C02B81019667
:101C800011F080E201C080E1822B8B8308C02E819D
:101C90003F812F5F3F4F3F832E83992702C08FEFF5
:101CA0009FEFDF91CF9108950F931F93CF93DF9311
:101CB000FB01238121FD03C08FEF9FEF2CC022FF8A
:101CC00016C046815781248135814217530744F459
:101CD000A081B1819D012F5F3F4F318320838C9381
:101CE000268137812F5F3F4F3783268314C08B01B6
:101CF000EC01FB010084F185E02D0995892BE1F6CB
:101D0000D80116968D919C911797019617969C93E2
:101D10008E931697CE01DF91CF911F910F91089569
:101D2000FB01238120FF12C026FD10C08F3F3FEF33
:101D3000930761F082832F7D20642383268137817E
:101D40002150310937832683992708958FEF9FEF1C
:101D50000895FA01AA27283051F1203181F1E89441
:101D60006F936E7F6E5F7F4F8F4F9F4FAF4FB1E08E
:101D70003ED0B4E03CD0670F781F891F9A1FA11D89
:101D8000680F791F8A1F911DA11D6A0F711D811D8A
:101D9000911DA11D20D009F468943F912AE0269F4F
:101DA00011243019305D3193DEF6CF010895462FAE
:101DB0004770405D4193B3E00FD0C9F7F6CF462F8F
:101DC0004F70405D4A3318F0495D31FD40524193F8
:101DD00002D0A9F7EACFB4E0A695979587957795B5
:101DE0006795BA95C9F700976105710508959B013C
:101DF000AC010A2E06945795479537952795BA95C5
:101E0000C9F7620F731F841F951FA01D089599279E
:101E100088270895DC01CB01FC01E199FECF06C0C3
:101E2000FFBBEEBBE09A31960DB20D92415050408F
:101E3000B8F70895DC01CB0103C02D910E94250F56
:101E400041505040D0F70895262FE199FECF9FBB17
:101E50008EBB2DBB0FB6F894E29AE19A0FBE0196A5
:101E60000895052E97FB1EF400940E94480F57FD1D
:101E700007D00E949A0F07FC03D04EF40C94480F31
:101E800050954095309521953F4F4F4F5F4F0895A6
:101E900090958095709561957F4F8F4F9F4F0895D6
:101EA0000E94BC0FA59F900DB49F900DA49F800D24
:101EB000911D11240895B7FF0C94500F0E94500FEC
:101EC000821B930B08952F923F924F925F926F92D5
:101ED0007F928F929F92AF92BF92CF92DF92EF92BA
:101EE000FF920F931F93CF93DF93CDB7DEB7CA1B3B
:101EF000DB0B0FB6F894DEBF0FBECDBF09942A8866
:101F0000398848885F846E847D848C849B84AA840D
:101F1000B984C884DF80EE80FD800C811B81AA819A
:101F2000B981CE0FD11D0FB6F894DEBF0FBECDBF65
:101F3000ED010895A1E21A2EAA1BBB1BFD010DC0E5
:101F4000AA1FBB1FEE1FFF1FA217B307E407F50769
:101F500020F0A21BB30BE40BF50B661F771F881F45
:101F6000991F1A9469F760957095809590959B01DB
:101F7000AC01BD01CF010895A29FB001B39FC00184
:101F8000A39F700D811D1124911DB29F700D811DA5
:0A1F90001124911D0895F894FFCF6D
:101F9A000100000054656D706F726172792061638F
:101FAA0063657373207365740A004572726F723ABF
:101FBA00204D6178696D756D206E756D6265722050
:101FCA006F662074656D706F7261727920616363E8
:101FDA0065737320636F64657320726561636865F6
:101FEA00640A00636865636B2000256868752025AC
:101FFA006868752568687525686875256868750054
:10200A00416363657373206772616E7465640A0065
:10201A004163636573732064656E6965640A00745D
:10202A00656D7020002568687520256868752568C3
:10203A00687525686875256868752025687500556E
:10204A006E6B6E6F776E2061636365737320636F67
:10205A006D6D616E640A0048656C6C6F2C20554189
:10206A005254210D0A00636F756E7400546F7461C7
:10207A006C2070656F706C653A2025640D0A477292
:10208A006F756E6420666C6F6F723A2025640D0A54
:10209A00466972737420666C6F6F723A2025640DFC
:1020AA000A5365636F6E6420666C6F6F723A2025FF
:1020BA00640D0A004D6F7665642031207065727375
:1020CA006F6E2066726F6D20666C6F6F722025646A
:1020DA0020746F20666C6F6F722025640D0A0045AC
:1020EA0072726F723A204E6F2070656F706C652045
:1020FA006F6E20666C6F6F722025640D0A00457240
:10210A00726F723A20496E76616C696420666C6FF0
:10211A006F72206E756D626572730D0A0074656E5A
:10212A00616E74200061636365737320006D616E74
:10213A006167652000556E6B6E6F776E20636F6DF9
:10214A006D616E640D0A00546F74616C2065617272
:10215A006E696E67733A2024256C750D0A00426118
:10216A0073652072656E742073657420746F202500
:10217A00640A004F4E004F464600457363616C6126
:10218A00746F72206F6E20666C6F6F7220256420E8
:10219A0073657420746F2025730A004572726F721A
:1021AA003A20496E76616C696420666C6F6F7220A2
:1021BA006E756D6265720A0054656E616E74206197
:1021CA0063636F756E742025642064697361626C41
:1021DA0065640A004572726F723A2054656E616EC8
:1021EA0074206E6F7420666F756E640A0072656E75
:1021FA00742000657363616C61746F7220002568D6
:10220A00687520256868750064697361626C652069
:10221A00006561726E696E677300556E6B6E6F77DB
:10222A006E206D616E6167656D656E7420636F6D9A
:10223A006D616E640D0A00546F74616C2065617281
:10224A006E696E677320757064617465643A2024E0
:10225A00256C750A0054656E616E7420616464654C
:10226A00642E2049443A2025640A004572726F722E
:10227A003A204D6178696D756D206E756D62657273
:10228A00206F662074656E616E7473207265616377
:10229A006865640A0054656E616E742072656D6FBC
:1022AA007665640A0052656E7420706169642E2036
:1022BA004E65772062616C616E63653A20242564FD
:1022CA000A0049443A2025642C204E616D653A2063
:1022DA0025732C20466C6F6F723A2025642C20528D
:1022EA00656E7420506169643A202425640A00618D
:1022FA0064642000257320256868750072656D6F17
:10230A007665200070617920006C69737400556EDF
:10231A006B6E6F776E2074656E616E7420636F6D7D
:06232A006D616E640A0003
:00000001FF
