S01300004D616C6C2073797374656D2E73726563C6
S11300000C9430000C944D000C944D000C944D0055
S11300100C944D000C944D000C944D000C944D0028
S11300200C944D000C944D000C944D000C944D0018
S11300300C944D000C944D000C944D000C944D0008
S11300400C944D000C944D000C944D000C944D00F8
S11300500C944D006364696E6F70737578585B001F
S113006011241FBECFE5D8E0DEBFCDBF13E0A0E66C
S1130070B0E0E0ECFEE102C005900D92AE3CB107A9
S1130080D9F726E0AEECB3E001C01D92A836B20762
S1130090E1F70E9452030C945E0F0C94000086E476
S11300A0E9EDF3E0DF011D928A95E9F741E050E0C4
S11300B060E070E08EEC93E00E949D0E46E450E018
S11300C061E070E089ED93E00E949D0E089541E0A7
S11300D050E060E070E08EEC93E00E94AD0E46E4E8
S11300E050E061E070E089ED93E00E94AD0E089568
S11300F0CF92DF92EF92FF920F931F93CF93DF93F0
S1130100D82E8B01C0E0D0E02FC08DE18C9FF00190
S11301108D9FF00D1124E15EFB4F80818D1123C072
S11301202DE12C9FC0012D9F900D112444E050E03F
S1130130B801895C9B4F0E948308892B09F08BC00E
S11301408DE18C9FF0018D9FF00D1124E15EFB4F3A
S1130150848D90E0268937898217930708F087C039
S1130160C0E0D0E07AC021968091D80390E0C8170F
S1130170D9075CF2C0E0D0E070C0FE01EE0FFF1FB3
S1130180EE0FFF1FEE0FFF1FEC1BFD0BE752FC4FA2
S11301908081D8125EC0CE01880F991F880F991FE5
S11301A0880F991F8C1B9D0B44E050E0B8018652C8
S11301B09C4F0E948308892B09F04BC0FE01EE0F6F
S11301C0FF1FEE0FFF1FEE0FFF1FEC1BFD0BE7528F
S11301D0FC4F85819681009781F1FE01EE0FFF1F90
S11301E0EE0FFF1FEE0FFF1FEC1BFD0BE752FC4F42
S11301F00197968385830E94670081E039C0CE0110
S11302000196DE01AA0FBB1FAA0FBB1FAA0FBB1FBB
S1130210AC1BBD0BA752BC4FFC01EE0FFF1FEE0F32
S1130220FF1FEE0FFF1FE81BF90BE752FC4F27E0FF
S113023001900D922A95E1F7EC01C7010197C817C7
S1130240D907ECF2CA94C092CE030E94670080E002
S11302500FC0219602C0C0E0D0E0C090CE03EC2CC9
S1130260F12CCE15DF050CF488CF80E001C081E0CD
S1130270DF91CF911F910F91FF90EF90DF90CF907E
S113028008950F931F93CF93DF93CDB7DEB72797CE
S11302900FB6F894DEBF0FBECDBF9091CE039A3057
S11302A058F58983FB0100811181228133810A83FE
S11302B01B832C833D835F834E8381E0890F80936E
S11302C0CE03892F90E0DC01AA0FBB1FAA0FBB1F2E
S11302D0AA0FBB1FA81BB90BA752BC4F87E0FE0196
S11302E0319601900D928A95E1F70E94670084E6A9
S11302F090E00E94EC0704C08AE790E00E94EC07BB
S113030027960FB6F894DEBF0FBECDBFDF91CF9115
S11303101F910F910895EF92FF920F931F93CF9324
S1130320DF93CDB7DEB727970FB6F894DEBF0FBEC5
S1130330CDBF8C0146E050E063EB70E00E94990869
S1130340892B91F5CE0104969F938F9301979F93E8
S11303508F9301979F938F939E012F5F3F4F790156
S11303603F932F9303969F938F938AEB90E09F93F1
S11303708F930A5F1F4F1F930F930E94D808B701F2
S11303808D810E9478000FB6F894DEBF0FBECDBFFA
S1130390882329F080ED90E00E94EC073CC080EEB9
S11303A090E00E94EC0737C045E050E06FEE70E04B
S11303B0C8010E949908892B51F5CE0105969F9397
S11303C08F9301979F938F9301979F938F93019797
S11303D09F938F9301977C019F938F9306969F938E
S11303E08F9385EF90E09F938F930B5F1F4F1F9325
S11303F00F930E94D8084D815E81B7018F810E94BE
S113040041010FB6F894DEBF0FBECDBF04C08FE02C
S113041091E00E94EC0727960FB6F894DEBF0FBE5A
S1130420CDBFDF91CF911F910F91FF90EF90089571
S113043081B3837E81BB82B38C6182BB0E94D60769
S113044087E291E00E94EC070E94A4050E944F00FD
S11304500E94880378940895829914C08091D203ED
S11304609091D30301969093D3038093D203EFEC3E
S1130470F3E080818F5F80838FE493EC0197F1F741
S113048000C00000839914C08091D2039091D303DB
S113049001969093D3038093D203EFECF3E0808131
S11304A08F5F80838FE493EC0197F1F700C0000025
S11304B084991EC08091D2039091D303892B91F02B
S11304C08091D2039091D30301979093D3038093A7
S11304D0D2038091CF03882329F0EFECF3E08081ED
S11304E0815080838FE493EC0197F1F700C0000002
S11304F008950F931F93CF93DF93CDB7DEB7C45600
S1130500D1090FB6F894DEBF0FBECDBF8C0166E3F0
S113051071E00E949008892B29F5EFECF3E0428109
S1130520318120818091D2039091D3031F924F9304
S11305301F923F931F922F939F938F938CE391E08D
S11305409F938F938E010F5F1F4F1F930F930E94F2
S1130550B608C8010E94EC070FB6F894DEBF0FBEC0
S1130560CDBF94C045E050E065EA73E0C8010E9445
S11305709908892B09F05CC0F801858190E0C09747
S1130580278130E0205331098330910508F042C0BF
S113059033230CF43FC023303105E4F5821793076D
S11305A0C9F1FC01E153FC4F4081442301F1FC01FA
S11305B0E153FC4F408141504083F901E153FC4F2A
S11305C040814F5F40833F932F939F938F9380E8A5
S11305D091E09F938F93CE0101969F938F930E94F6
S11305E0B6080FB6F894DEBF0FBECDBF1CC09F93F4
S11305F08F938AEA91E09F938F93CE0101969F9304
S11306008F930E94B6080F900F900F900F900F9049
S11306100F9009C08EE1E8ECF1E0DE011196019043
S11306200D928A95E1F7CE0101960E94EC072EC047
S113063047E050E066EE71E0C8010E949908892BFA
S113064029F4C80107960E94420720C047E050E001
S11306506EEE71E0C8010E949908892B29F4C80143
S113066007960E948B0112C047E050E066EF71E0EC
S1130670C8010E949908892B29F4C80107960E9491
S1130680D70404C08EEF91E00E94EC07CC59DF4FF1
S11306900FB6F894DEBF0FBECDBFDF91CF911F918F
S11306A00F910895CF93DF93CDB7DEB7E2970FB6DE
S11306B0F894DEBF0FBECDBF0E94180210E00E9466
S11306C02C025F9BFCCF0E94E8078A3011F08D302A
S11306D069F4E1E0F0E0EC0FFD1FE10FF11D108281
S11306E0CE0101960E94790210E0E9CFE1E0F0E04A
S11306F0EC0FFD1FE10FF11D80831F5FE0CF45E08C
S113070050E060E070E083E696E00E94AD0E08954C
S113071045E050E060E070E083E696E00E949D0EC4
S113072080916306909164060196A1F488EE93E0AB
S1130730909364068093630680E090E006C0FC0119
S1130740ED59F94F21E02283019683309105BCF3E2
S11307500E947F0344E050E065E070E084ED93E0A4
S11307600E949D0E08950F931F93CF93DF93CDB7EF
S1130770DEB7E2970FB6F894DEBF0FBECDBF8C0193
S113078090936406809363060E947F0380E090E068
S11307904BC02DE1289FF001299FF00D1124E15E4B
S11307A0FB4F258921110BC02DE1289FF001299FC2
S11307B0F00D1124E15EFB4F178B068B34C0213002
S11307C0A1F49801220F331F200F311F369527956E
S11307D0369527954DE1489FF001499FF00D11246E
S11307E0E15EFB4F378B268B1EC02230E1F498016B
S11307F0220F331F200F311F3695279536952795E5
S1130800A901440F551F240F351F3695279536959A
S113081027954DE1489FF001499FF00D1124E15EB9
S1130820FB4F378B268B01962091D80330E082173B
S113083093070CF4AECF0E94C5051F930F938FE06E
S113084092E09F938F938E010F5F1F4F1F930F931F
S11308500E94B608C8010E94EC070F900F900F90F9
S11308600F900F900F90E2960FB6F894DEBF0FBE74
S1130870CDBFDF91CF911F910F9108950F931F93D7
S1130880CF93DF93CDB7DEB7E2970FB6F894DEBF10
S11308900FBECDBF182F062F833030F5E82FF0E0C0
S11308A0ED59F94F62830E947F03002319F084E21B
S11308B092E002C087E292E09F938F931F921F936E
S11308C08BE292E09F938F938E010F5F1F4F1F93D4
S11308D00F930E94B608C8010E94EC070FB6F89463
S11308E0DEBF0FBECDBF04C08CE492E00E94EC07D3
S11308F0E2960FB6F894DEBF0FBECDBFDF91CF9165
S11309001F910F9108950F931F93CF93DF93CDB74A
S1130910DEB7E2970FB6F894DEBF0FBECDBF182F37
S113092020E030E02FC08DE1829FF001839FF00D25
S11309301124E15EFB4F8081811322C08DE1829FEF
S1130940F001839FF00D1124E15EFB4F148E0E9491
S1130950C5051F921F9389E692E09F938F938E01A2
S11309600F5F1F4F1F930F930E94B608C8010E9488
S1130970EC070F900F900F900F900F900F900CC0FA
S11309802F5F3F4F8091D80390E0281739075CF21E
S113099085E892E00E94EC07E2960FB6F894DEBF79
S11309A00FBECDBFDF91CF911F910F9108950F938B
S11309B01F93CF93DF9300D01F92CDB7DEB78C0186
S11309C045E050E06EE972E00E949908892BC9F471
S11309D0CE0101969F938F938BE091E09F938F9329
S11309E00B5F1F4F1F930F930E94D80889819A8130
S11309F00E94B3030F900F900F900F900F900F90E1
S1130A0049C04AE050E064EA72E0C8010E949908D3
S1130A10892BD9F4CE0101969F938F9302969F93CD
S1130A208F938FEA92E09F938F93065F1F4F1F93DC
S1130A300F930E94D80869818B810E943E040FB6EF
S1130A40F894DEBF0FBECDBF25C048E050E069EB8F
S1130A5072E0C8010E949908892BC1F4CE01019665
S1130A609F938F938EE993E09F938F93085F1F4F1B
S1130A701F930F930E94D80889810E9483040F90CA
S1130A800F900F900F900F900F9004C082EC92E0A3
S1130A900E94EC070F900F900F90DF91CF911F9160
S1130AA00F9108950F931F93CF93DF93CDB7DEB7C4
S1130AB0E2970FB6F894DEBF0FBECDBF4091D403CA
S1130AC05091D5036091D6037091D703480F591FF5
S1130AD0611D711D4093D4035093D5036093D603D5
S1130AE07093D70344E050E065E070E084ED93E058
S1130AF00E94AD0E8091D7038F938091D6038F937C
S1130B008091D5038F938091D4038F938EED92E0DF
S1130B109F938F938E010F5F1F4F1F930F930E941C
S1130B20B608C8010E94EC070FB6F894DEBF0FBEEA
S1130B30CDBFE2960FB6F894DEBF0FBECDBFDF91F6
S1130B40CF911F910F91089541E050E060E070E073
S1130B5088ED93E00E949D0E4091D8038FEF840F9F
S1130B60843158F48DE1489FA001112461E070E0C4
S1130B708FE194E00E949D0E08951092D80360E0E6
S1130B8080E090E00E94B70E08956091D80380E061
S1130B9090E00E94B70E4091D8038DE1489FA001D8
S1130BA0112461E070E08FE194E00E94AD0E08959D
S1130BB00F931F93CF93DF93CDB7DEB7CF54D109F3
S1130BC00FB6F894DEBF0FBECDBF9C01162F9091D7
S1130BD0D803943108F058C09F5F9BAB43E150E0C9
S1130BE0B901CE01C4960E94A70828961FAE289783
S1130BF029961FAF29972B961FAE1EAE2B97609692
S1130C001FAE609700E010E00FC00E9473086AE016
S1130C1070E00E94FF07EBE4F0E0EC0FFD1FE00F33
S1130C20F11F80830F5F1F4F0430110574F3A091EF
S1130C30D80381E08A0F8093D8038DE1A89FD00167
S1130C401124A15EBB4F8DE1FE01F39601900D923C
S1130C508A95E1F70E94C5058BA91F928F938CEFAB
S1130C6092E09F938F938E010F5F1F4F1F930F93FB
S1130C700E94B608C8010E94EC070F900F900F90D5
S1130C800F900F900F9004C082E193E00E94EC0754
S1130C90C15BDF4F0FB6F894DEBF0FBECDBFDF914F
S1130CA0CF911F910F91089520E030E034C09DE171
S1130CB0929FF001939FF00D1124E15EFB4F908110
S1130CC0981327C017C0C90101966DE1629FD00136
S1130CD0639FB00D1124A15EBB4F689FF001699F13
S1130CE0F00D1124E15EFB4F2DE101900D922A9548
S1130CF0E1F79C01CA0101972817390724F37150C1
S1130D007093D8030E94C5058CE393E00E94EC071E
S1130D1008952F5F3F4F7091D803472F50E0241759
S1130D2035072CF285E892E00E94EC070895EF92D3
S1130D30FF920F931F93CF93DF93CDB7DEB7E29764
S1130D400FB6F894DEBF0FBECDBFF62EE72E40E0FF
S1130D5050E030C09DE1949FF001959FF00D112467
S1130D60E15EFB4F9081981323C08F01848D8F0D1A
S1130D70848F0E94C5058F2D9E2D0E945205F80177
S1130D80848D1F928F938CE493E09F938F938E01B5
S1130D900F5F1F4F1F930F930E94B608C8010E9454
S1130DA0EC070F900F900F900F900F900F900CC0C6
S1130DB04F5F5F4F2091D80330E04217530754F23E
S1130DC085E892E00E94EC07E2960FB6F894DEBF45
S1130DD00FBECDBFDF91CF911F910F91FF90EF9088
S1130DE00895EF92FF920F931F93CF93DF93CDB7A4
S1130DF0DEB7C456D1090FB6F894DEBF0FBECDBF1F
S1130E0000E010E02BC02DE1209FC001219F900D38
S1130E101124FC01E15EFB4F448D3589805E9B4FBC
S1130E2020811F924F931F923F939F938F931F9202
S1130E302F9389E693E09F938F93CE0101967C01D3
S1130E409F938F930E94B608C7010E94EC070F5F1F
S1130E501F4F0FB6F894DEBF0FBECDBF8091D803ED
S1130E6090E0081719077CF2CC59DF4F0FB6F894BD
S1130E70DEBF0FBECDBFDF91CF911F910F91FF90C9
S1130E80EF900895EF92FF920F931F93CF93DF9308
S1130E90CDB7DEB765970FB6F894DEBF0FBECDBFF2
S1130EA08C0144E050E066E973E00E949908892BC4
S1130EB0E1F4CE0145969F938F9344977C019F93D1
S1130EC08F938BE993E09F938F930C5F1F4F1F9336
S1130ED00F930E94D8086D89C7010E94D8050FB6E8
S1130EE0F894DEBF0FBECDBF54C047E050E063EAC4
S1130EF073E0C8010E949908892BC1F4CE010196C0
S1130F009F938F938EE993E09F938F93095F1F4F75
S1130F101F930F930E94D80889810E9454060F9052
S1130F200F900F900F900F900F9033C044E050E05B
S1130F306BEA73E0C8010E949908892BE1F4CE01A1
S1130F4001969F938F9344969F938F9386E091E0AD
S1130F509F938F930C5F1F4F1F930F930E94D8088A
S1130F6069817A818D890E9497060FB6F894DEBF55
S1130F700FBECDBF0EC060EB73E0C8010E949008A5
S1130F80892B19F40E94F10604C085EB93E00E94BA
S1130F90EC0765960FB6F894DEBF0FBECDBFDF91A8
S1130FA0CF911F910F91FF90EF90089510BC83E3B0
S1130FB089B988E18AB986E080BD08955D9BFECF3A
S1130FC08CB989EF90E00197F1F700C00000089513
S1130FD05F9BFECF8CB10895CF93DF93EC0109C0E2
S1130FE00E94DE0789EF90E00197F1F700C000004E
S1130FF0219688818111F4CFDF91CF91089597FBD9
S1131000072E16F4009407D077FD09D00E94130828
S113101007FC05D03EF4909581959F4F08957095F7
S113102061957F4F0895AA1BBB1B51E107C0AA1FFE
S1131030BB1FA617B70710F0A61BB70B881F991F75
S11310405A95A9F780959095BC01CD0108958F928A
S11310509F92AF92BF92CF92DF92EF92FF92CF9383
S1131060DF93EC01688179818A819B816115710527
S11310708105910521F464E279ED8BE597E02DE19A
S113108033EF41E050E00E94C40E49015A019B0134
S1131090AC01A7EAB1E40E94E30E6B017C01ACEE63
S11310A0B4EFA50194010E94F10EDC01CB018C0D7B
S11310B09D1DAE1DBF1DB7FF03C00197A109B04818
S11310C088839983AA83BB839F77DF91CF91FF9015
S11310D0EF90DF90CF90BF90AF909F908F90089546
S11310E00E942708089580E690E00E94270808954A
S11310F0A0E0B0E08093600090936100A093620050
S1131100B09363000895FB01DC0104C08D9101904C
S1131110801921F441505040C8F7881B990B089559
S1131120FB01DC018D91019080190110D9F3990B19
S11311300895FB01DC014150504030F08D91019045
S1131140801919F40020B9F7881B990B0895FB0145
S1131150DC014150504048F001900D920020C9F745
S113116001C01D9241505040E0F70895AEE0B0E058
S1131170ECEBF8E00C94040F0D891E8986E08C8357
S11311801A8309838FEF9FE79E838D83AE01475EA9
S11311905F4F6F89788DCE0101960E94F108EF812F
S11311A0F885E00FF11F10822E96E4E00C94200FD6
S11311B0AEE0B0E0EEEDF8E00C94060F85E08C8331
S11311C08B899C899A838983AE01495E5F4F6D89BF
S11311D07E89CE0101960E946E0C2E96E2E00C945C
S11311E0220FABE0B0E0E7EFF8E00C94F60E6C01F0
S11311F07B018A01FC0117821682838181FFCCC1A5
S1131200CE0101963C01F6019381F70193FD85918E
S113121093FF81917F01882309F4BAC1853239F49F
S113122093FD859193FF81917F01853229F4B60165
S113123090E00E94E70DE7CF912C212C312CFFE1A7
S1131240F315D8F08B3279F038F4803279F08332A8
S1131250A1F4232D20611DC08D3261F0803369F427
S1131260232D216016C0832D8260382EE32DE46087
S11312703E2E2AC0F32DF8601DC037FC2DC020ED92
S1131280280F2A3040F08E32B9F436FC81C1232D68
S11312902064322E19C036FE06C08AE0989E200DC6
S11312A01124922E11C0EAE02E9E200D1124222E2C
S11312B0F32DF0623F2E08C08C3621F4832D806814
S11312C0382E02C0883641F4F70193FD859193FFCF
S11312D081917F018111B3CF982F9F7D95549330D5
S11312E028F40C5F1F4F9FE399830DC0833631F0C0
S11312F0833771F0833509F059C021C0F80180812A
S113130089830E5F1F4F88248394912C530113C04B
S11313102801F2E04F0E511CF801A080B18036FE86
S113132003C0692D70E002C06FEF7FEFC5010E941A
S11313309E0D4C018201F32DFF773F2E16C028012C
S113134022E0420E511CF801A080B18036FE03C099
S1131350692D70E002C06FEF7FEFC5010E94930D0D
S11313604C01F32DF0683F2E820133FC1BC0822D0B
S113137090E088169906B0F4B60180E290E00E94ED
S1131380E70D2A94F4CFF50137FC859137FE81915E
S11313905F01B60190E00E94E70D21102A9421E03C
S11313A0821A91088114910471F7E8C0843611F00F
S11313B0893641F5F80137FE07C060817181828169
S11313C093810C5F1F4F08C060817181072E000C50
S11313D0880B990B0E5F1F4FF32DFF763F2E97FF5F
S11313E009C090958095709561957F4F8F4F9F4F61
S11313F0F0683F2E2AE030E0A3010E943C0E882EC4
S1131400861845C0853731F4232D2F7EB22E2AE06D
S113141030E025C0932D997FB92E8F36C1F018F492
S1131420883579F0B5C0803719F0883721F0B0C01D
S1131430E92FE061BE2EB4FE0DC0FB2DF460BF2E7B
S113144009C034FE0AC0292F2660B22E06C028E047
S113145030E005C020E130E002C020E132E0F801D4
S1131460B7FE07C060817181828193810C5F1F4F39
S113147006C06081718180E090E00E5F1F4FA30180
S11314800E943C0E882E8618FB2DFF773F2E36FED9
S11314900DC0232D2E7FA22E891458F434FE0BC0C8
S11314A032FC09C0832D8E7EA82E05C0B82CA32C37
S11314B003C0B82C01C0B92CA4FE0FC0FE01E80D76
S11314C0F11D8081803321F49A2D997EA92E09C0C3
S11314D0A2FE06C0B394B39404C08A2D867809F0A2
S11314E0B394A3FC11C0A0FE06C0B21488F4280C67
S11314F0922C9B180EC0B21460F4B60180E290E006
S11315000E94E70DB394F7CFB21418F42B1802C05D
S1131510982C212CA4FE10C0B60180E390E00E9418
S1131520E70DA2FE17C0A1FC03C088E790E002C04B
S113153088E590E0B6010CC08A2D867859F0A1FEAA
S113154002C08BE201C080E2A7FC8DE2B60190E00C
S11315500E94E70D891438F4B60180E390E00E94FC
S1131560E70D9A94F7CF8A94F301E80DF11D808179
S1131570B60190E00E94E70D8110F5CF222009F416
S113158042CEB60180E290E00E94E70D2A94F6CFA5
S1131590F6018681978102C08FEF9FEF2B96E2E1DF
S11315A00C94120F20FD09C0FC0123FD05C022FF8D
S11315B002C07383628351834083089544FD17C03E
S11315C046FD17C0AB01BC01DA01FB01AA0FBB1F2A
S11315D0EE1FFF1F1094D1F74A0F5B1F6E1F7F1F72
S11315E0CB01BA01660F771F881F991F09C033E02A
S11315F001C034E0660F771F881F991F3150D1F75F
S1131600620F711D811D911D08950F931F93CF9338
S1131610DF938C01C8010E94A90DEC0197FD08C05D
S11316200E947F0D892BB1F7B801CE010E94230ED1
S1131630CE01DF91CF911F910F9108958F929F92C8
S1131640AF92BF92EF92FF920F931F93CF93DF93CA
S11316508C01D62F7A01B22E0E94A90D9C0133274A
S11316602B32310531F02D32310561F48B2D806838
S1131670B82ED15011F480E068C0C8010E94A90DB1
S113168097FDF9CFCB2DCD7F2B2D207309F580331A
S1131690F9F4AA24AA94AD0E09F443C0C8010E9427
S11316A0A90D97FD3EC09C012F7D332728353105B8
S11316B049F4C264D250A9F1C8010E94A90D97FF50
S11316C007C02FC0B6FE02C0C26001C0C261DA2DDD
S11316D0812C912C540120ED280F283080F0C4FF78
S11316E004C0B8010E94230E19C02A3040F0C6FF7E
S11316F0F8CF2F7D3FEE320F363098F727504C2F1E
S1131700C501B4010E94DE0A4B015C01C260D150E4
S113171059F0C8010E94A90D97FFDDCFC1FD04C097
S1131720AACF812C912C5401C7FF08C0B094A09477
S113173090948094811C911CA11CB11C2C2FB50188
S1131740A401C7010E94D20A81E0DF91CF911F91C9
S11317500F91FF90EF90BF90AF909F908F9008955E
S1131760A0E2B0E0E6EBFBE00C94F90E5C01962EEF
S11317707A01F9018E010F5F1F4F680180E2D801E1
S11317801D928A95E9F7D50113968C9080E090E03C
S1131790612C712C30E061E070E083FC259183FEC4
S11317A021918F01522E211103C080E090E092C05C
S11317B02E3511F4009751F1432F50E04817590783
S11317C03CF42D3559F12D3219F4772009F103C079
S11317D0772009F46AC0452D469546954695D6016D
S11317E0A40FB11D452D47708B0102C0000F111FBE
S11317F04A95E2F7A8015C91452B4C93651459F086
S1131800561410F45394E7CF5A94E5CF31E004C052
S11318107724739401C0712C0196BFCF772019F0FF
S11318208E8180628E83311103C08824839417C013
S1131830F6019E012F5D3F4F8081809581932E1785
S11318403F07D1F7F2CFE114F10429F0D7018C93CB
S1131850F70131967F019A94812C9920F9F0C50102
S11318600E94A90D97FD18C0FC01FF2723E0F59500
S1131870E7952A95E1F7EC0DFD1D208130E0AC01E0
S11318804770552702C0359527954A95E2F720FD04
S1131890DACFB5010E94230E811087CFE114F10441
S11318A011F0D7011C92C80115C0422F46954695E8
S11318B04695D601A40FB11D422F47708B0102C07B
S11318C0000F111F4A95E2F7A8015C91452B4C9338
S11318D0622EA2CFA096EFE00C94150FA0E0B0E02A
S11318E0E4E7FCE00C94F90E6C01EB015A01FC01F5
S11318F017821682512CF601E380FE01E3FC8591E8
S1131900E3FE8191182FEF01882309F4EEC090E0E3
S11319100E947F0D892B21F0C6010E94050BEBCF9D
S1131920153241F4FE01E3FC1591E3FE1191EF0140
S1131930153281F4C6010E94A90D97FDD4C0412F30
S113194050E09C01332724173507A9F2B6010E9401
S1131950230ECBC01A3239F4E3FC1591E3FE119146
S1131960EF0101E001C000E0F12C20ED210F2A304D
S113197080F402606F2D70E080E090E040E20E940D
S1131980DE0AF62EFE01E3FC1591E3FE1191EF0150
S1131990ECCF01FF03C0F11003C0A7C0FF24FA94E9
S11319A0183619F01C3651F010C0FE01E3FC1591F5
S11319B0E3FE1191EF01183641F408600460FE0162
S11319C0E3FC1591E3FE1191EF01112309F48DC09D
S11319D0612F70E084E590E00E94880D892B09F462
S11319E084C000FD07C0F50180809180C501029686
S11319F05C0102C0812C912C1E3651F4F601468103
S1131A00578160E070E0202FC4010E94D20A73CF96
S1131A101336A9F401FD02C0FF24F394C6010E9409
S1131A20A90D97FD60C08114910429F0F40180830D
S1131A30C40101964C01FA94F110F0CF50C01B354B
S1131A4059F49E01A4016F2DC6010E94B00BEC0154
S1131A50892B09F044C03EC0C6010E94050B97FDC6
S1131A6042C01F3661F128F4143639F1193651F1A8
S1131A7028C0133771F0153701F123C08114910484
S1131A8029F0F4016082C40101964C01FA94FF200C
S1131A9071F0C6010E94A90D3C0197FD08C00E9487
S1131AA07F0D892B59F3B601C3010E94230E8114C3
S1131AB09104A9F0F401108212C0006203C0006115
S1131AC001C00064202FA4016F2DC6010E941E0BCB
S1131AD0811105C0F6018381807329F406C000FDDD
S1131AE00ACF539408CF552019F0852D90E002C0F9
S1131AF08FEF9FEFCDB7DEB7EFE00C94150F911188
S1131B000C949A0E803219F089508550C8F70895C4
S1131B10FC010590061621F00020D9F7C0010895B4
S1131B203197CF010895FC01059061507040011078
S1131B30D8F7809590958E0F9F1F0895FC016150F2
S1131B40704001900110D8F7809590958E0F9F1FDB
S1131B500895CF93DF93EC012B8120FF33C026FF40
S1131B600AC02F7B2B838E819F8101969F838E8356
S1131B708A8190E029C022FF0FC0E881F981808129
S1131B80082E000C990B009719F420622B831AC0BD
S1131B903196F983E8830EC0EA85FB85099597FFA2
S1131BA009C02B81019611F080E201C080E1822BF3
S1131BB08B8308C02E813F812F5F3F4F3F832E834D
S1131BC0992702C08FEF9FEFDF91CF9108950F9374
S1131BD01F93CF93DF93FB01238121FD03C08FEF7C
S1131BE09FEF2CC022FF16C0468157812481358186
S1131BF04217530744F4A081B1819D012F5F3F4FE9
S1131C00318320838C93268137812F5F3F4F378325
S1131C10268314C08B01EC01FB010084F185E02DC7
S1131C200995892BE1F6D80116968D919C91179709
S1131C30019617969C938E931697CE01DF91CF91C0
S1131C401F910F910895FB01238120FF12C026FDEF
S1131C5010C08F3F3FEF930761F082832F7D206494
S1131C60238326813781215031093783268399279D
S1131C7008958FEF9FEF0895FA01AA27283051F1B4
S1131C80203181F1E8946F936E7F6E5F7F4F8F4FA9
S1131C909F4FAF4FB1E03ED0B4E03CD0670F781F08
S1131CA0891F9A1FA11D680F791F8A1F911DA11DED
S1131CB06A0F711D811D911DA11D20D009F4689426
S1131CC03F912AE0269F11243019305D3193DEF6CE
S1131CD0CF010895462F4770405D4193B3E00FD084
S1131CE0C9F7F6CF462F4F70405D4A3318F0495D6F
S1131CF031FD4052419302D0A9F7EACFB4E0A69552
S1131D009795879577956795BA95C9F70097610573
S1131D10710508959B01AC010A2E069457954795C9
S1131D2037952795BA95C9F7620F731F841F951FBE
S1131D30A01D0895992788270895DC01CB01FC0193
S1131D40E199FECF06C0FFBBEEBBE09A31960DB21F
S1131D500D9241505040B8F70895DC01CB0103C007
S1131D602D910E94B80E41505040D0F70895262F6F
S1131D70E199FECF9FBB8EBB2DBB0FB6F894E29AC0
S1131D80E19A0FBE01960895052E97FB1EF4009468
S1131D900E94DB0E57FD07D00E942D0F07FC03D0D5
S1131DA04EF40C94DB0E50954095309521953F4FA1
S1131DB04F4F5F4F089590958095709561957F4F33
S1131DC08F4F9F4F08950E944F0FA59F900DB49F72
S1131DD0900DA49F800D911D11240895B7FF0C94BC
S1131DE0E30E0E94E30E821B930B08952F923F9201
S1131DF04F925F926F927F928F929F92AF92BF9217
S1131E00CF92DF92EF92FF920F931F93CF93DF93C2
S1131E10CDB7DEB7CA1BDB0B0FB6F894DEBF0FBE1F
S1131E20CDBF09942A88398848885F846E847D846C
S1131E308C849B84AA84B984C884DF80EE80FD806E
S1131E400C811B81AA81B981CE0FD11D0FB6F894E4
S1131E50DEBF0FBECDBFED010895A1E21A2EAA1B6D
S1131E60BB1BFD010DC0AA1FBB1FEE1FFF1FA21746
S1131E70B307E407F50720F0A21BB30BE40BF50B43
S1131E80661F771F881F991F1A9469F760957095CC
S1131E90809590959B01AC01BD01CF010895A29F4F
S1131EA0B001B39FC001A39F700D811D1124911D2A
S1131EB0B29F700D811D1124911D0895F894FFCFD8
S1131EC00100000054656D706F7261727920616366
S1131ED063657373207365740A004572726F723A96
S1131EE0204D6178696D756D206E756D6265722027
S1131EF06F662074656D706F7261727920616363BF
S1131F0065737320636F64657320726561636865CC
S1131F10640A00636865636B200025686875202582
S1131F20686875256868752568687525686875002A
S1131F30416363657373206772616E7465640A003C
S1131F404163636573732064656E6965640A007434
S1131F50656D70200025686875202568687525689A
S1131F606875256868752568687520256875005545
S1131F706E6B6E6F776E2061636365737320636F3E
S1131F806D6D616E640A0048656C6C6F2C20554160
S1131F905254210D0A00636F756E7400546F74619E
S1131FA06C2070656F706C653A2025640A47726F07
S1131FB0756E6420666C6F6F723A2025640A4669F8
S1131FC072737420666C6F6F723A2025640A5365CD
S1131FD0636F6E6420666C6F6F723A2025640A002A
S1131FE04D6F766564203120706572736F6E206664
S1131FF0726F6D20666C6F6F7220256420746F2081
S1132000666C6F6F722025640A004572726F723AB3
S1132010204E6F2070656F706C65206F6E20666C4B
S11320206F6F722025640A004572726F723A2049FC
S11320306E76616C696420666C6F6F72206E756D6C
S1132040626572730A0074656E616E742000616368
S11320506365737320006D616E6167652000556E62
S11320606B6E6F776E20636F6D6D616E640A0042F4
S11320706173652072656E742073657420746F20BB
S113208025640A004F4E004F464600457363616C59
S113209061746F72206F6E20666C6F6F722025649E
S11320A02073657420746F2025730A004572726F63
S11320B0723A20496E76616C696420666C6F6F7247
S11320C0206E756D6265720A0054656E616E7420CF
S11320D06163636F756E7420256420646973616243
S11320E06C65640A004572726F723A2054656E61C1
S11320F06E74206E6F7420666F756E640A0072656C
S11321006E742000657363616C61746F72200025C6
S113211068687520256868750064697361626C6518
S11321202000556E6B6E6F776E206D616E61676512
S11321306D656E7420636F6D6D616E640A00546F1B
S113214074616C206561726E696E6773207570646A
S1132150617465643A2024256C750A0054656E61C7
S11321606E742061646465642E2049443A202564B9
S11321700A004572726F723A204D6178696D756D0F
S1132180206E756D626572206F662074656E616E77
S1132190747320726561636865640A0054656E61D6
S11321A06E742072656D6F7665640A0052656E7494
S11321B020706169642E204E65772062616C616EC7
S11321C063653A202425640A0049443A2025642C96
S11321D0204E616D653A2025732C20466C6F6F721A
S11321E03A2025642C2052656E7420506169643A4B
S11321F0202425640A006164642000257320256876
S113220068750072656D6F766520007061792000D5
S11322106C69737400556E6B6E6F776E2074656EA7
S1112220616E7420636F6D6D616E640A000060
S9030000FC
