:100000004BC0000067C0000065C0000063C0000076
:1000100061C000005FC000005DC000005BC0000068
:1000200059C0000057C0000055C0000053C0000078
:1000300051C000004FC000004DC000004BC0000088
:1000400049C0000047C0000045C0000043C0000098
:1000500041C000003FC000003DC000003BC00000A8
:1000600039C0000037C0000035C0000033C00000B8
:1000700031C000002FC000002DC000002BC00000C8
:1000800029C0000027C0000025C000006364696E1D
:100090006F70737578585B0011241FBECFEFD0E1ED
:1000A000DEBFCDBF14E0A0E0B1E0ECE2FEE100E095
:1000B0000BBF02C007900D92AE35B107D9F726E00D
:1000C000AEE5B4E001C01D92A83FB207E1F7E0D26F
:1000D0000C94140F95CF86E4E9E6F4E0DF011D925D
:1000E0008A95E9F741E050E060E070E08EE594E049
:1000F0000E94910E46E450E061E070E089E694E0F1
:100100000C94910E089541E050E060E070E08EE5BF
:1001100094E00E94A10E46E450E061E070E089E6C0
:1001200094E00C94A10E0895CF92DF92EF92FF928B
:100130000F931F93CF93DF93D82E8B01C0E0D0E0B5
:100140002EC08DE18C9FF0018D9FF00D1124E155A3
:10015000FB4F80818D1122C02DE12C9FC0012D9F6E
:10016000900D112444E050E0B80189539B4F74D79F
:10017000892B09F088C08DE18C9FF0018D9FF00DD7
:100180001124E155FB4F848D90E026893789821731
:10019000930708F084C0C0E0D0E077C0219680913A
:1001A000680490E0C817D90764F2C0E0D0E06DC0E1
:1001B000FE01EE0FFF1FEE0FFF1FEE0FFF1FEC1BE8
:1001C000FD0BE759FB4F8081D8125BC0CE01880F31
:1001D000991F880F991F880F991F8C1B9D0B44E056
:1001E00050E0B80186599B4F37D7892B09F049C099
:1001F000FE01EE0FFF1FEE0FFF1FEE0FFF1FEC1BA8
:10020000FD0BE759FB4F85819681009779F1FE013F
:10021000EE0FFF1FEE0FFF1FEE0FFF1FEC1BFD0B7E
:10022000E759FB4F0197968385836DDF81E038C0E6
:10023000CE010196DE01AA0FBB1FAA0FBB1FAA0F9A
:10024000BB1FAC1BBD0BA759BB4FFC01EE0FFF1F23
:10025000EE0FFF1FEE0FFF1FE81BF90BE759FB4FD7
:1002600027E001900D922A95E1F7EC01C701019773
:10027000C817D907ECF2CA94C0925E0444DF80E04C
:100280000FC0219602C0C0E0D0E0C0905E04EC2C0C
:10029000F12CCE15DF050CF48BCF80E001C081E09E
:1002A000DF91CF911F910F91FF90EF90DF90CF9052
:1002B00008950F931F93CF93DF93CDB7DEB72797A2
:1002C0000FB6F894DEBF0FBECDBF90915E049A309A
:1002D00048F58983FB0100811181228133810A83E2
:1002E0001B832C833D835F834E8381E0890F809342
:1002F0005E04892F90E0DC01AA0FBB1FAA0FBB1F71
:10030000AA0FBB1FA81BB90BA759BB4F87E0FE0163
:10031000319601900D928A95E1F7F5DE84E091E047
:1003200013D603C08AE191E00FD627960FB6F89452
:10033000DEBF0FBECDBFDF91CF911F910F9108950A
:10034000EF92FF920F931F93CF93DF93CDB7DEB75A
:1003500027970FB6F894DEBF0FBECDBF8C0146E0E5
:1003600050E063E571E08ED6892B71F5CE010496DD
:100370009F938F9301979F938F9301979F938F9351
:100380009E012F5F3F4F79013F932F9303969F93D9
:100390008F938AE591E09F938F930A5F1F4F1F937E
:1003A0000F93BBD6B7018D81BFDE0FB6F894DEBFC9
:1003B0000FBECDBF882321F080E791E0C5D537C0BF
:1003C00080E891E0C1D533C045E050E06FE871E0CE
:1003D000C80158D6892B41F5CE0105969F938F937E
:1003E00001979F938F9301979F938F9301979F936B
:1003F0008F9301977C019F938F9306969F938F9382
:1004000085E991E09F938F930B5F1F4F1F930F938D
:1004100084D64D815E81B7018F814BDF0FB6F89492
:10042000DEBF0FBECDBF03C08FEA91E08DD527960A
:100430000FB6F894DEBF0FBECDBFDF91CF911F91F5
:100440000F91FF90EF90089581B3887F81BB82B3B5
:10045000876082BB67D551D33EDE4CD17894089536
:10046000809914C0809162049091630401969093E6
:10047000630480936204EFE5F4E080818F5F808302
:100480008FE493EC0197F1F700C00000819914C04C
:100490008091620490916304019690936304809329
:1004A0006204EFE5F4E080818F5F80838FE493EC5A
:1004B0000197F1F700C0000082991EC0809162048C
:1004C00090916304892B91F0809162049091630470
:1004D0000197909363048093620480915F04882362
:1004E00029F0EFE5F4E08081815080838FE493EC84
:1004F0000197F1F700C0000008950F931F93CF9369
:10050000DF93CDB7DEB7C456D1090FB6F894DEBF7E
:100510000FBECDBF8C0167EC71E0ABD5892B19F50F
:10052000EFE5F4E042813181208180916204909175
:1005300063041F924F931F923F931F922F939F9399
:100540008F938DEC91E09F938F938E010F5F1F4FE0
:100550001F930F93B4D5C801F7D40FB6F894DEBF3C
:100560000FBECDBF89C045E050E066E374E0C8012E
:1005700089D5892B09F059C0F801858190E0C09791
:10058000278130E0205331098330910508F040C0C5
:1005900033230CF43DC023303105D4F58217930783
:1005A000B9F1FC01E15AFB4F40814423F9F0FC0111
:1005B000E15AFB4F408141504083F901E15AFB4F22
:1005C00040814F5F40833F932F939F938F9381E1AF
:1005D00092E09F938F93CE0101969F938F936FD557
:1005E0000FB6F894DEBF0FBECDBF1BC09F938F9395
:1005F0008BE392E09F938F93CE0101969F938F930D
:100600005ED50F900F900F900F900F900F9009C034
:100610008EE1E9E5F2E0DE01119601900D928A95F6
:10062000E1F7CE01019690D427C047E050E067E79C
:1006300072E0C80127D5892B21F4C8010796EAD3B7
:100640001BC047E050E06FE772E0C8011BD5892B63
:1006500021F4C801079674DE0FC047E050E067E858
:1006600072E0C8010FD5892B21F4C801079684D107
:1006700003C08FE892E068D4CC59DF4F0FB6F894EE
:10068000DEBF0FBECDBFDF91CF911F910F910895B7
:10069000CF93DF93CDB7DEB7E2970FB6F894DEBF06
:1006A0000FBECDBFD1DE10E0DBDE5F9BFDCF48D4B7
:1006B0008A3011F08D3061F4E1E0F0E0EC0FFD1FC5
:1006C000E10FF11D1082CE01019617DF10E0ECCF93
:1006D000E1E0F0E0EC0FFD1FE10FF11D80831F5FF3
:1006E000E3CF45E050E060E070E083EF96E00C94EB
:1006F000A10E089545E050E060E070E083EF96E0E1
:100700000E94910E8091F3069091F406019699F45F
:1007100088EE93E09093F4068093F30680E090E0F7
:1007200006C0FC01ED50F94F21E022830196833091
:100730009105BCF3D6DF44E050E065E070E084E66C
:1007400094E00C94910E08950F931F93CF93DF9331
:10075000CDB7DEB7E2970FB6F894DEBF0FBECDBFC0
:100760008C019093F4068093F306BBDF80E090E069
:100770004BC02DE1289FF001299FF00D1124E15578
:10078000FB4F258921110BC02DE1289FF001299FE6
:10079000F00D1124E155FB4F178B068B34C021302F
:1007A000A1F49801220F331F200F311F3695279592
:1007B000369527954DE1489FF001499FF00D112492
:1007C000E155FB4F378B268B1EC02230E1F4980198
:1007D000220F331F200F311F369527953695279509
:1007E000A901440F551F240F351F369527953695BF
:1007F00027954DE1489FF001499FF00D1124E155E7
:10080000FB4F378B268B01962091680430E08217CE
:1008100093070CF4AECF92D11F930F9380EA92E02E
:100820009F938F938E010F5F1F4F1F930F9347D49A
:10083000C8018AD30F900F900F900F900F900F90D8
:10084000E2960FB6F894DEBF0FBECDBFDF91CF9119
:100850001F910F9108950F931F93CF93DF93CDB7FF
:10086000DEB7E2970FB6F894DEBF0FBECDBF182FEC
:10087000062F833018F5E82FF0E0ED50F94F628332
:1008800030DF002319F085EB92E002C088EB92E0A4
:100890009F938F931F921F938CEB92E09F938F9364
:1008A0008E010F5F1F4F1F930F9309D4C8014CD3C4
:1008B0000FB6F894DEBF0FBECDBF03C08DED92E042
:1008C00043D3E2960FB6F894DEBF0FBECDBFDF91E3
:1008D000CF911F910F9108950F931F93CF93DF93A3
:1008E000CDB7DEB7E2970FB6F894DEBF0FBECDBF2F
:1008F000182F20E030E02CC08DE1829FF001839F13
:10090000F00D1124E155FB4F808181131FC08DE153
:10091000829FF001839FF00D1124E155FB4F148E4F
:100920000DD11F921F938AEF92E09F938F938E01B8
:100930000F5F1F4F1F930F93C2D3C80105D30F90B2
:100940000F900F900F900F900F900BC02F5F3F4FA5
:100950008091680490E02817390774F286E193E0EB
:10096000F3D2E2960FB6F894DEBF0FBECDBFDF9193
:10097000CF911F910F9108950F931F93CF93DF9302
:1009800000D01F92CDB7DEB78C0145E050E06FE29A
:1009900073E078D3892BB9F4CE0101969F938F939E
:1009A0008BEA91E09F938F930B5F1F4F1F930F93E1
:1009B000B4D389819A81C8DE0F900F900F900F9069
:1009C0000F900F9042C04AE050E065E373E0C80129
:1009D00059D3892BC9F4CE0101969F938F93029628
:1009E0009F938F9380E493E09F938F93065F1F4FB5
:1009F0001F930F9392D369818B812DDF0FB6F894EB
:100A0000DEBF0FBECDBF21C048E050E06AE473E016
:100A1000C80138D3892BB1F4CE0101969F938F93EF
:100A20008FE294E09F938F93085F1F4F1F930F9364
:100A300074D3898151DF0F900F900F900F900F901A
:100A40000F9003C083E593E07FD20F900F900F903B
:100A5000DF91CF911F910F9108950F931F93CF9323
:100A6000DF93CDB7DEB7E2970FB6F894DEBF0FBEC7
:100A7000CDBF40916404509165046091660470910B
:100A80006704480F591F611D711D40936404509302
:100A90006504609366047093670444E050E065E089
:100AA00070E084E694E00E94A10E809167048F9329
:100AB000809166048F93809165048F938091640484
:100AC0008F938FE693E09F938F938E010F5F1F4F5D
:100AD0001F930F93F4D2C80137D20FB6F894DEBF3C
:100AE0000FBECDBFE2960FB6F894DEBF0FBECDBFEE
:100AF000DF91CF911F910F91089541E050E060E0A8
:100B000070E088E694E00E94910E409168048FEFB7
:100B1000840F843158F48DE1489FA001112461E0D5
:100B200070E08FEA94E00C94910E0895109268049E
:100B300060E080E090E00C94AA0E08956091680453
:100B400080E090E00E94AA0E409168048DE1489FE9
:100B5000A001112461E070E08FEA94E00C94A10EF2
:100B600008950F931F93CF93DF93CDB7DEB7CF5484
:100B7000D1090FB6F894DEBF0FBECDBF9C01162F72
:100B800090916804943108F052C09F5F9BAB43E1A1
:100B900050E0B901CE01C49683D228961FAE2897A3
:100BA00029961FAF29972B961FAE1EAE2B976096E6
:100BB0001FAE609700E010E00DC040D26AE070E028
:100BC000CFD1EBE4F0E0EC0FFD1FE00FF11F8083CD
:100BD0000F5F1F4F0430110584F3A091680481E07A
:100BE0008A0F809368048DE1A89FD0011124A1553C
:100BF000BB4F8DE1FE01F39601900D928A95E1F7CE
:100C00009DDF8BA91F928F938DE893E09F938F9325
:100C10008E010F5F1F4F1F930F9351D2C80194D1C4
:100C20000F900F900F900F900F900F9003C083EADA
:100C300093E08AD1C15BDF4F0FB6F894DEBF0FBEE1
:100C4000CDBFDF91CF911F910F91089520E030E04B
:100C500032C09DE1929FF001939FF00D1124E15568
:100C6000FB4F9081981325C017C0C90101966DE113
:100C7000629FD001639FB00D1124A155BB4F689FA7
:100C8000F001699FF00D1124E155FB4F2DE101901A
:100C90000D922A95E1F79C01CA010197281739079F
:100CA00024F371507093680449DF8DEC93E04CC1DC
:100CB00008952F5F3F4F70916804472F50E024172D
:100CC00035073CF286E193E03FC10895EF92FF9231
:100CD0000F931F93CF93DF93CDB7DEB7E2970FB695
:100CE000F894DEBF0FBECDBFF62EE72E40E050E0F9
:100CF0002CC09DE1949FF001959FF00D1124E155CA
:100D0000FB4F908198131FC08F01848D8F0D848FAE
:100D100015DF8F2D9E2DA1DEF801848D1F928F93FC
:100D20008DED93E09F938F938E010F5F1F4F1F9365
:100D30000F93C5D1C80108D10F900F900F900F905D
:100D40000F900F900BC04F5F5F4F2091680430E011
:100D50004217530774F286E193E0F6D0E2960FB69D
:100D6000F894DEBF0FBECDBFDF91CF911F910F91E1
:100D7000FF90EF900895EF92FF920F931F93CF9300
:100D8000DF93CDB7DEB7C456D1090FB6F894DEBFF6
:100D90000FBECDBF00E010E029C02DE1209FC001B3
:100DA000219F900D1124FC01E155FB4F448D3589A5
:100DB00080559B4F20811F924F931F923F939F938B
:100DC0008F931F922F938AEF93E09F938F93CE017F
:100DD00001967C019F938F9372D1C701B5D00F5FAD
:100DE0001F4F0FB6F894DEBF0FBECDBF80916804D1
:100DF00090E0081719078CF2CC59DF4F0FB6F89422
:100E0000DEBF0FBECDBFDF91CF911F910F91FF903D
:100E1000EF900895EF92FF920F931F93CF93DF937C
:100E2000CDB7DEB765970FB6F894DEBF0FBECDBF66
:100E30008C0144E050E067E274E024D1892BD1F4C6
:100E4000CE0145969F938F9344977C019F938F93F8
:100E50008CE294E09F938F930C5F1F4F1F930F932F
:100E60005CD16D89C7017DDE0FB6F894DEBF0FBE81
:100E7000CDBF4BC047E050E064E374E0C80102D14D
:100E8000892BB1F4CE0101969F938F938FE294E06A
:100E90009F938F93095F1F4F1F930F933ED18981BB
:100EA000D5DE0F900F900F900F900F900F902DC0E8
:100EB00044E050E06CE374E0C801E4D0892BD1F445
:100EC000CE0101969F938F9344969F938F9386EACA
:100ED00091E09F938F930C5F1F4F1F930F931DD132
:100EE00069817A818D89F2DE0FB6F894DEBF0FBE7C
:100EF000CDBF0BC061E474E0C801BBD0892B11F4F5
:100F00003ADF03C086E494E01FD065960FB6F894EC
:100F1000DEBF0FBECDBFDF91CF911F910F91FF902C
:100F2000EF900895109290008FEF89B988E18AB907
:100F300086E08093950008955D9BFECF8CB908955F
:100F40005F9BFECF8CB10895CF93DF93EC0102C07D
:100F5000F3DF219688818111FBCFDF91CF91089536
:100F600097FB072E16F4009406D077FD08D00BD01F
:100F700007FC05D03EF4909581959F4F089570959C
:100F800061957F4F0895AA1BBB1B51E107C0AA1FA3
:100F9000BB1FA617B70710F0A61BB70B881F991F1A
:100FA0005A95A9F780959095BC01CD0108958F922F
:100FB0009F92AF92BF92CF92DF92EF92FF92CF9328
:100FC000DF93EC01688179818A819B8161157105CC
:100FD0008105910521F464E279ED8BE597E02DE13F
:100FE00033EF41E050E0C3D649015A019B01AC0107
:100FF000A7EAB1E4D8D66B017C01ACEEB4EFA50151
:101000009401DDD6DC01CB018C0D9D1DAE1DBF1DF5
:10101000B7FF03C00197A109B04888839983AA83C9
:10102000BB839F77DF91CF91FF90EF90DF90CF90C0
:10103000BF90AF909F908F900895B9CF80E091E0DE
:10104000B6CFA0E0B0E08093000190930101A0939F
:101050000201B09303010895FB01DC0104C08D91EE
:101060000190801921F441505040C8F7881B990B1A
:101070000895FB01DC018D91019080190110D9F3D5
:10108000990B0895FB01DC014150504030F08D91E7
:101090000190801919F40020B9F7881B990B089565
:1010A000FB01DC014150504048F001900D920020BE
:1010B000C9F701C01D9241505040E0F708950F93C9
:1010C0001F93CF93DF93CDB7DEB72E970FB6F8946B
:1010D000DEBF0FBECDBF0D891E8986E08C831A83CB
:1010E00009838FEF9FE79E838D83AE01475E5F4F3D
:1010F0006F89788DCE01019631D0EF81F885E00FB0
:10110000F11F10822E960FB6F894DEBF0FBECDBF32
:10111000DF91CF911F910F910895CF93DF93CDB7BA
:10112000DEB72E970FB6F894DEBF0FBECDBF85E0B9
:101130008C838B899C899A838983AE01495E5F4F3A
:101140006D897E89CE010196B8D32E960FB6F8949C
:10115000DEBF0FBECDBFDF91CF9108952F923F929A
:101160004F925F926F927F928F929F92AF92BF92B7
:10117000CF92DF92EF92FF920F931F93CF93DF9363
:10118000CDB7DEB72B970FB6F894DEBF0FBECDBF3D
:101190006C017B018A01FC0117821682838181FF29
:1011A000BFC1CE0101963C01F6019381F70193FD89
:1011B000859193FF81917F01882309F4ADC1853228
:1011C00039F493FD859193FF81917F01853221F45C
:1011D000B60190E0F0D4E8CF912C212C312CFFE126
:1011E000F315D8F08B3279F038F4803279F083320D
:1011F000A1F4232D20611DC08D3261F0803369F48C
:10120000232D216016C0832D8260382EE32DE460EB
:101210003E2E2AC0F32DF8601DC037FC2DC020EDF6
:10122000280F2A3040F08E32B9F436FC75C1232DD8
:101230002064322E19C036FE06C08AE0989E200D2A
:101240001124922E11C0EAE02E9E200D1124222E90
:10125000F32DF0623F2E08C08C3621F4832D806878
:10126000382E02C0883641F4F70193FD859193FF33
:1012700081917F018111B3CF982F9F7D9554933039
:1012800028F40C5F1F4F9FE399830DC0833631F024
:10129000833771F0833509F055C020C0F801808193
:1012A00089830E5F1F4F88248394912C530112C0B1
:1012B0002801F2E04F0E511CF801A080B18036FEEB
:1012C00003C0692D70E002C06FEF7FEFC5012AD423
:1012D0004C018201F32DFF773F2E15C0280122E03B
:1012E000420E511CF801A080B18036FE03C0692D6A
:1012F00070E002C06FEF7FEFC50109D44C01F32D00
:10130000F0683F2E820133FC19C0822D90E08816D0
:101310009906A0F4B60180E290E04DD42A94F5CF6E
:10132000F50137FC859137FE81915F01B60190E0B0
:1013300042D421102A9421E0821A91088114910448
:1013400079F7E1C0843611F0893639F5F80137FEB6
:1013500007C060817181828193810C5F1F4F08C03B
:1013600060817181072E000C880B990B0E5F1F4F57
:10137000F32DFF763F2E97FF09C0909580957095CD
:1013800061957F4F8F4F9F4FF0683F2E2AE030E0EE
:10139000A30166D4882E861844C0853731F4232DE6
:1013A0002F7EB22E2AE030E025C0932D997FB92EF2
:1013B0008F36C1F018F4883579F0AEC0803719F057
:1013C000883721F0A9C0E92FE061BE2EB4FE0DC020
:1013D000FB2DF460BF2E09C034FE0AC0292F266001
:1013E000B22E06C028E030E005C020E130E002C0A7
:1013F00020E132E0F801B7FE07C06081718182818F
:1014000093810C5F1F4F06C06081718180E090E086
:101410000E5F1F4FA30124D4882E8618FB2DFF7763
:101420003F2E36FE0DC0232D2E7FA22E891458F498
:1014300034FE0BC032FC09C0832D8E7EA82E05C061
:10144000B82CA32C03C0B82C01C0B92CA4FE0FC02B
:10145000FE01E80DF11D8081803321F49A2D997EE3
:10146000A92E09C0A2FE06C0B394B39404C08A2D6D
:10147000867809F0B394A3FC10C0A0FE06C0B21495
:1014800080F4280C922C9B180DC0B21458F4B601AD
:1014900080E290E090D3B394F8CFB21418F42B18F4
:1014A00002C0982C212CA4FE0FC0B60180E390E06E
:1014B00082D3A2FE16C0A1FC03C088E790E002C060
:1014C00088E590E0B6010CC08A2D867851F0A1FE27
:1014D00002C08BE201C080E2A7FC8DE2B60190E081
:1014E0006AD3891430F4B60180E390E064D39A940F
:1014F000F8CF8A94F301E80DF11D8081B60190E0E8
:101500005AD38110F6CF222009F44ECEB60180E2E4
:1015100090E051D32A94F7CFF6018681978102C0DB
:101520008FEF9FEF2B960FB6F894DEBF0FBECDBFA7
:10153000DF91CF911F910F91FF90EF90DF90CF90AF
:10154000BF90AF909F908F907F906F905F904F90E3
:101550003F902F90089520FD09C0FC0123FD05C098
:1015600022FF02C07383628351834083089544FD48
:1015700017C046FD17C0AB01BC01DA01FB01AA0F81
:10158000BB1FEE1FFF1F1094D1F74A0F5B1F6E1F8A
:101590007F1FCB01BA01660F771F881F991F09C0F3
:1015A00033E001C034E0660F771F881F991F315068
:1015B000D1F7620F711D811D911D08950F931F9327
:1015C000CF93DF938C01C801B8D2EC0197FD06C020
:1015D0008BD2892BC1F7B801CE0129D3CE01DF917F
:1015E000CF911F910F9108958F929F92AF92BF92CA
:1015F000EF92FF920F931F93CF93DF938C01D62F1F
:101600007A01B22E9AD29C0133272B32310531F068
:101610002D32310559F48B2D8068B82ED15011F43C
:1016200080E061C0C80189D297FDFACFCB2DCD7F74
:101630002B2D2073F9F48033E9F4AA24AA94AD0E7B
:1016400009F43EC0C80179D297FD3AC09C012F7DB4
:1016500033272835310541F4C264D25089F1C801DD
:101660006CD297FF07C02CC0B6FE02C0C26001C09A
:10167000C261DA2D812C912C540120ED280F2830E5
:1016800078F0C4FF03C0B801D2D217C02A3040F0AE
:10169000C6FFF9CF2F7D3FEE320F3630A0F727502F
:1016A0004C2FC501B40163DF4B015C01C260D15016
:1016B00051F0C80142D297FFE0CFC1FD04C0B0CFC6
:1016C000812C912C5401C7FF08C0B094A094909431
:1016D0008094811C911CA11CB11C2C2FB501A4016C
:1016E000C70139DF81E0DF91CF911F910F91FF900A
:1016F000EF90BF90AF909F908F9008955F926F9200
:101700007F928F929F92AF92BF92CF92DF92EF9291
:10171000FF920F931F93CF93DF93CDB7DEB7A097C0
:101720000FB6F894DEBF0FBECDBF5C01962E7A01D6
:10173000F9018E010F5F1F4F680180E2D8011D92F1
:101740008A95E9F7D50113968C9080E090E0612CA2
:10175000712C30E061E070E083FC259183FE2191E3
:101760008F01522E211103C080E090E090C02E35F1
:1017700011F4009751F1432F50E0481759073CF4FA
:101780002D3559F12D3219F4772009F103C0772056
:1017900009F468C0452D469546954695D601A40F97
:1017A000B11D452D47708B0102C0000F111F4A95D6
:1017B000E2F7A8015C91452B4C93651459F056143F
:1017C00010F45394E7CF5A94E5CF31E004C0772466
:1017D000739401C0712C0196BFCF772019F08E81D0
:1017E00080628E83311103C08824839417C0F60170
:1017F0009E012F5D3F4F8081809581932E173F077B
:10180000D1F7F2CFE114F10429F0D7018C93F7015D
:1018100031967F019A94812C9920E9F0C5018DD1F0
:1018200097FD17C0FC01FF2723E0F595E7952A9562
:10183000E1F7EC0DFD1D208130E0AC01477055272C
:1018400002C0359527954A95E2F720FDDBCFB5011B
:10185000EED1811089CFE114F10411F0D7011C926F
:10186000C80115C0422F469546954695D601A40F4E
:10187000B11D422F47708B0102C0000F111F4A9506
:10188000E2F7A8015C91452B4C93622EA4CFA09661
:101890000FB6F894DEBF0FBECDBFDF91CF911F9181
:1018A0000F91FF90EF90DF90CF90BF90AF909F90FF
:1018B0008F907F906F905F9008955F926F927F926C
:1018C0008F929F92AF92BF92CF92DF92EF92FF9250
:1018D0000F931F93CF93DF936C01EB015A01FC012F
:1018E00017821682512CF601E380FE01E3FC8591FC
:1018F000E3FE8191182FEF01882309F4E0C090E006
:10190000F3D0892B19F0C60159DEEDCF153241F421
:10191000FE01E3FC1591E3FE1191EF01153271F424
:10192000C6010BD197FDC9C0412F50E09C01332760
:1019300024173507C1F2B6017AD1C1C01A3239F481
:10194000E3FC1591E3FE1191EF0101E001C000E01D
:10195000F12C20ED210F2A3078F402606F2D70E019
:1019600080E090E040E203DEF62EFE01E3FC1591FC
:10197000E3FE1191EF01EDCF01FF03C0F11003C0B1
:101980009EC0FF24FA94183619F01C3651F010C08E
:10199000FE01E3FC1591E3FE1191EF01183641F4CD
:1019A00008600460FE01E3FC1591E3FE1191EF0174
:1019B000112309F484C0612F70E08CE890E09CD082
:1019C000892B09F47CC000FD07C0F501808091805F
:1019D000C50102965C0102C0812C912C1E3649F48F
:1019E000F6014681578160E070E0202FC401B3DD2D
:1019F0007ACF1336A1F401FD02C0FF24F394C6018F
:101A00009CD097FD5AC08114910429F0F401808381
:101A1000C40101964C01FA94F110F1CF4AC01B3574
:101A200051F49E01A4016F2DC60168DEEC01892BE3
:101A300009F03FC039C0C601C1DD97FD3EC01F3669
:101A400049F128F4143621F1193639F125C013373C
:101A500071F01537E9F020C08114910429F0F401E8
:101A60006082C40101964C01FA94FF2059F0C6012E
:101A700064D03C0197FD06C037D0892B69F3B601CD
:101A8000C301D5D081149104A1F0F401108211C0DA
:101A9000006203C0006101C00064202FA4016F2D0B
:101AA000C601A2DD811105C0F6018381807329F48E
:101AB00006C000FD18CF539416CF552019F0852D80
:101AC00090E002C08FEF9FEFDF91CF911F910F91B8
:101AD000FF90EF90DF90CF90BF90AF909F908F904E
:101AE0007F906F905F900895911118C1803219F026
:101AF00089508550D0F70895FC010590061621F015
:101B00000020D9F7C00108953197CF010895FC0155
:101B10000590615070400110D8F7809590958E0F18
:101B20009F1F0895FC016150704001900110D8F78B
:101B3000809590958E0F9F1F0895CF93DF93EC01B2
:101B40002B8120FF33C026FF0AC02F7B2B838E8181
:101B50009F8101969F838E838A8190E029C022FF16
:101B60000FC0E881F9818081082E000C990B009745
:101B700019F420622B831AC03196F983E8830EC0D2
:101B8000EA85FB85099597FF09C02B81019611F025
:101B900080E201C080E1822B8B8308C02E813F81CF
:101BA0002F5F3F4F3F832E83992702C08FEF9FEF18
:101BB000DF91CF9108950F931F93CF93DF93FB0194
:101BC000238121FD03C08FEF9FEF2CC022FF16C0A1
:101BD00046815781248135814217530744F4A081FF
:101BE000B1819D012F5F3F4F318320838C932681EC
:101BF00037812F5F3F4F3783268314C08B01EC0161
:101C0000FB010084F185E02D0995892BE1F6D801CF
:101C100016968D919C911797019617969C938E938B
:101C20001697CE01DF91CF911F910F910895FB017F
:101C3000238120FF12C026FD10C08F3F3FEF930786
:101C400061F082832F7D2064238326813781215098
:101C5000310937832683992708958FEF9FEF0895E1
:101C6000FA01AA27283051F1203181F1E8946F93CD
:101C70006E7F6E5F7F4F8F4F9F4FAF4FB1E03ED073
:101C8000B4E03CD0670F781F891F9A1FA11D680F11
:101C9000791F8A1F911DA11D6A0F711D811D911D44
:101CA000A11D20D009F468943F912AE0269F1124B9
:101CB0003019305D3193DEF6CF010895462F47701D
:101CC000405D4193B3E00FD0C9F7F6CF462F4F7078
:101CD000405D4A3318F0495D31FD4052419302D0D6
:101CE000A9F7EACFB4E0A69597958795779567957C
:101CF000BA95C9F700976105710508959B01AC017C
:101D00000A2E06945795479537952795BA95C9F7A2
:101D1000620F731F841F951FA01D089599278827A0
:101D20000895DC01CB01FC01E199FECF06C0FFBBA9
:101D3000EEBBE09A31960DB20D9241505040B8F78B
:101D40000895DC01CB0102C02D9105D041505040D7
:101D5000D8F70895262FE199FECF9FBB8EBB2DBBF0
:101D60000FB6F894E29AE19A0FBE01960895052EF7
:101D700097FB16F400940FD057FD05D024D007FC34
:101D800002D046F408C050954095309521953F4FBC
:101D90004F4F5F4F089590958095709561957F4F57
:101DA0008F4F9F4F089531D0A59F900DB49F900DF8
:101DB000A49F800D911D11240895B7FFF4CFF3DF88
:101DC000821B930B0895A1E21A2EAA1BBB1BFD01D7
:101DD0000DC0AA1FBB1FEE1FFF1FA217B307E4070A
:101DE000F50720F0A21BB30BE40BF50B661F771F62
:101DF000881F991F1A9469F7609570958095909542
:101E00009B01AC01BD01CF010895A29FB001B39F1A
:101E1000C001A39F700D811D1124911DB29F700DF3
:0C1E2000811D1124911D0895F894FFCF3E
:101E2C000100000054656D706F72617279206163FE
:101E3C0063657373207365740A004572726F723A2E
:101E4C00204D6178696D756D206E756D62657220BF
:101E5C006F662074656D706F726172792061636357
:101E6C0065737320636F6465732072656163686565
:101E7C00640A00636865636B20002568687520251B
:101E8C0068687525686875256868752568687500C3
:101E9C00416363657373206772616E7465640A00D5
:101EAC004163636573732064656E6965640A0074CD
:101EBC00656D702000256868752025686875256833
:101ECC0068752568687525686875202568750055DE
:101EDC006E6B6E6F776E2061636365737320636FD7
:101EEC006D6D616E640A00636F756E7400546F746F
:101EFC00616C2070656F706C653A2025640A4772BE
:101F0C006F756E6420666C6F6F723A2025640A469A
:101F1C006972737420666C6F6F723A2025640A5371
:101F2C0065636F6E6420666C6F6F723A2025640A6D
:101F3C00004D6F766564203120706572736F6E2072
:101F4C0066726F6D20666C6F6F7220256420746FE3
:101F5C0020666C6F6F722025640A004572726F7276
:101F6C003A204E6F2070656F706C65206F6E206626
:101F7C006C6F6F722025640A004572726F723A2082
:101F8C00496E76616C696420666C6F6F72206E7539
:101F9C006D626572730A0074656E616E7420006107
:101FAC00636365737320006D616E61676520005516
:101FBC006E6B6E6F776E20636F6D6D616E640A0071
:101FCC00426173652072656E742073657420746F42
:101FDC002025640A004F4E004F464600457363614E
:101FEC006C61746F72206F6E20666C6F6F7220253F
:101FFC00642073657420746F2025730A0045727217
:10200C006F723A20496E76616C696420666C6F6FF2
:10201C0072206E756D6265720A0054656E616E7425
:10202C00206163636F756E7420256420646973612D
:10203C00626C65640A004572726F723A2054656E68
:10204C00616E74206E6F7420666F756E640A007218
:10205C00656E742000657363616C61746F7220002F
:10206C002568687520256868750064697361626C01
:10207C00652000556E6B6E6F776E206D616E6167BB
:10208C00656D656E7420636F6D6D616E640A0054CE
:10209C006F74616C206561726E696E677320757008
:1020AC0064617465643A2024256C750A0054656E6D
:1020BC00616E742061646465642E2049443A202565
:1020CC00640A004572726F723A204D6178696D75C1
:1020DC006D206E756D626572206F662074656E6121
:1020EC006E747320726561636865640A0054656E72
:1020FC00616E742072656D6F7665640A0052656E50
:10210C007420706169642E204E65772062616C6169
:10211C006E63653A202425640A0049443A202564FC
:10212C002C204E616D653A2025732C20466C6F6F08
:10213C00723A2025642C2052656E742050616964BB
:10214C003A202425640A006164642000257320254C
:10215C006868750072656D6F766520007061792016
:10216C00006C69737400556E6B6E6F776E207465BE
:0E217C006E616E7420636F6D6D616E640A009B
:00000001FF
